:020000040800F2
:1000000060070020450100084B1F0008431F00083F
:10001000471F000891040008C522000800000000E6
:10002000000000000000000000000000791F000830
:1000300095040008000000004D1F00087B1F000809
:100040005F0100085F0100085F0100085F01000810
:100050005F0100085F0100085F0100085F01000800
:100060005F0100085F0100085F0100085F010008F0
:100070005F0100085F0100085F0100085F010008E0
:100080005F0100085F0100085F0100085F010008D0
:100090005F0100085F0100085F0100085F010008C0
:1000A0005F0100085F0100085F0100085F010008B0
:1000B0005F0100085F010008851F00085F0100085C
:1000C0005F0100085F0100085F0100085F01000890
:1000D0005F010008B52200085F0100085F01000809
:1000E0005F0100085F0100085F0100085F01000870
:1000F0005F0100085F0100085F0100085F01000860
:100100005F0100085F0100085F0100085F0100084F
:100110005F0100085F0100085F0100085F0100083F
:100120005F0100085F0100085F0100085F0100082F
:10013000DFF80CD000F060F900480047F1600008DB
:10014000600700200648804706480047FEE7FEE7B4
:10015000FEE7FEE7FEE7FEE7FEE7FEE7FEE7FEE777
:10016000831F000831010008D2B201E000F8012B22
:10017000491EFBD270470022F6E710B513460A4627
:1001800004461946FFF7F0FF204610BD2DE9FE4F4B
:1001900081EA030404F0004421F0004100944FF090
:1001A000000B23F0004350EA01045ED052EA03043E
:1001B0005BD0C3F30A54C1F30A552C44A4F2F334C0
:1001C0000194A0FB0254C1F3130141F48011C3F365
:1001D000130343F4801301FB024400FB034E840A23
:1001E000970A44EA815447EA8357A4FB07680295BB
:1001F0008D0A05FB07854FEA932C04FB0C54270559
:10020000029D4FEA065847EA1637B5EB08056EEB34
:10021000070C870E920E47EA811742EA8312A7FB6A
:100220000201B6EB0B0164EB00042B0D43EA0C3327
:100230005E1844EB1C50DA465146E7FB0201C5F359
:1002400013044FEA0B3343EA14534FEA0432019C80
:1002500043EA0603A4F10C040294009CCDE900B427
:1002600000F07CF803B0BDE8F08F00200146F9E70C
:100270000EB540F2334102910021CDE900110A464A
:100280000B4600F06BF803B000BDC1F30A5210B585
:10029000C1F3130140F2FF3341F480119A4201DAB5
:1002A000002010BD40F233439A42A2F2334203DCF5
:1002B000524200F034F810BD904010BD2DE9F05FBF
:1002C0000546002092469B468846064681464024C5
:1002D0001BE0284641464746224600F020F8534698
:1002E0005A46C01A914110D311461846224600F0D2
:1002F00095F82D1A67EB01084F4622460120002190
:1003000000F08CF817EB00094E41201EA4F1010407
:10031000DFDC484631462A464346BDE8F09F202AA6
:1003200004DB203A21FA02F00021704721FA02F39F
:10033000D040C2F12002914008431946704710B5E1
:10034000141E73F1000408DA401C41F100019218F8
:100350005B411A4301D120F0010010BD2DE9F04DA1
:1003600092469B4611B1B1FA81F202E0B0FA80F2F6
:100370002032904600F052F804460F4640EA0A0048
:1003800041EA0B0153465A46084313D0114653EA3B
:10039000010019D0C8F140025046FFF7C0FF0546E2
:1003A0000E4650465946424600F038F8084305D0FC
:1003B000012004E020463946BDE8F08D00200543C9
:1003C00046EAE0762C4337430A986305E40AA0EB3B
:1003D00008000022FD0A44EA47540A3002D50020F2
:1003E0000146E9E7010510196941DDE908450019F1
:1003F0006941BDE8F04DA2E7064C074D06E0E06814
:1004000040F0010394E8070098471034AC42F6D35B
:10041000FFF792FE74A7000894A70008202A04DBC7
:10042000203A00FA02F1002070479140C2F1200307
:1004300020FA03F319439040704770B58C1810F8F8
:10044000015B15F0070301D110F8013B2A1106D119
:1004500010F8012B03E010F8016B01F8016B5B1E33
:10046000F9D12B0705D40023521E0DD401F8013B0E
:10047000FAE710F8013BCB1A921C03E013F8015B7A
:1004800001F8015B521EF9D5A142D8D3002070BDFE
:1004900000BFFEE77047000070B50446B3F5804F1B
:1004A00013D1D1E9000540EA05108D6840EA052026
:1004B0008D6928438D8940EA054054F82250064E44
:1004C0003540284344F8220003E06FF0704044F8C0
:1004D0002200002070BD00000000F0CF70B5024681
:1004E000086852F8200020F001000E6842F826004B
:1004F0008868082801D1402300E000234868184399
:100500008E683043CE6830430E6930434E693043C5
:10051000CE6930430E6A30434E6A30438E6A3043B0
:10052000CE6A30430E6B40EA060488690443486B88
:100530000443074D45F4806545F4E025086852F80A
:100540002000A84320430E6842F82600002070BD1A
:100550007FFB080010B50346D1E9000440EA04100F
:100560008C6840EA04208C8940EA0444088A401ED2
:1005700044EA0054087D801E44EA00608C692043F0
:10058000541C53F8244004F040442043541C43F8C6
:100590002400002010BDF0B504460D461E4694F818
:1005A000207020688368A86800B900E000BF012FB0
:1005B00001D0022F7CD103F0806030B903F00060DD
:1005C00018B903F08050002873D0C3F301610229E9
:1005D00005D9606A40F4000060620120F0BD01208E
:1005E00088403060A86860B9B5F800C0E86840EAA3
:1005F0004C5C206800F5C07000EB0110C0F800C032
:100600000FE0D5E901C040EACC00D5F80CC040EAC3
:100610000C00D4F800C00CF5C07C0CEB011CCCF82D
:100620000000D5F810C0206800F5C07000EB011084
:10063000C0F804C0287D01280ED1206800F5C070E4
:1006400000EB0110406840F4807C206800F5C07029
:1006500000EB0110C0F804C0D079000692F806C083
:1006600040EA0C4092F805C040EA0C2C10794CEAA4
:10067000000C206800F5C07000EB0110C0F80CC041
:10068000D078000692F802C040EA0C4092F801C00F
:1006900040EA0C2092F800C040EA0C00D4F800C0F8
:1006A0000CF5C07C0CEB011CCCF80800206801E0C4
:1006B00016E00FE000F5C07000EB0110006840F09C
:1006C000010C206800F5C07000EB0110C0F800C0FC
:1006D000002083E7606A40F40010606201207DE73B
:1006E000606A40F480206062012077E7F0B504463C
:1006F0000A46216894F82050012D01D0022D74D1B2
:10070000D1F8000240F00100C1F80002107D00F0B5
:100710001F06012000FA06F3D1F81C029843C1F825
:100720001C02D069C8B9D1F80C029843C1F80C0278
:10073000908880B2968940EA064601F510705769A4
:1007400040F83760108880B2168940EA064601F505
:100750001070576900EBC7004660D069012819D1B5
:10076000D1F80C021843C1F80C02908880B21688A8
:1007700040EA064601F51070576940F837609089E5
:1007800080B2168940EA064601F51070576900EB01
:10079000C7004660906928B9D1F804029843C1F8AF
:1007A000040204E0D1F804021843C1F804021069FD
:1007B00028B9D1F814029843C1F8140204E0D1F822
:1007C00014021843C1F81402106A012804D1D1F8A8
:1007D0001C021843C1F81C02D1F8000220F00100ED
:1007E000C1F800020020F0BDFFE7606A40F48020FD
:1007F00060620120F7E710B50246002092F8203031
:10080000012B01D0022B09D121B91468E46804F04E
:10081000030003E01468246904F0030010BD70B500
:10082000044694F82050012D01D0022D7DD151B9FC
:100830002068C06800F0030080B9606A40F40010CE
:100840006062012070BD2068006900F0030028B9D3
:10085000606A40F4001060620120F3E7206800F550
:10086000D87000EB0110006800F004009060906800
:1008700040B9206800F5D87000EB01100068400D09
:10088000106007E0206800F5D87000EB01100068E8
:10089000C0085060206800F5D87000EB01100068B7
:1008A00000F00200D060206800F5D87000EB011065
:1008B000406800F00F001061206800F5D87000EB70
:1008C0000110406800F47F40000A9061206800F544
:1008D000D87000EB01104068000C5061206800F5F2
:1008E000D87000EB011080681870206800F5D8708F
:1008F00000EB0110806800F47F40000A5870206807
:1009000000F5D87000EB0110806800F47F00000C47
:100910009870206800F5D87000EB01108068000E18
:10092000D870206800F5D87000E02FE000EB0110CF
:10093000C0681871206800F5D87000EB0110C0681D
:1009400000F47F40000A5871206800F5D87000EB71
:100950000110C06800F47F00000C9871206800F559
:10096000D87000EB0110C068000ED87131B9206852
:10097000C06840F020002668F06005E0206800694B
:1009800040F020002668306100205BE7606A40F498
:1009900080206062012055E70146002091F8202068
:1009A000012A01D0022A11D10B689B6803F08063F1
:1009B00003B1401C0B689B6803F0006303B1401C4B
:1009C0000B689B6803F0805303B1401C704770B5FF
:1009D00004460CB9012070BD94F8200010B92046DF
:1009E00000F0B0F82068006820F00200216808607C
:1009F00000F0B6FB05460DE000F0B2FB401B0A28F4
:100A000008D9606A40F400306062052084F8200054
:100A10000120E0E72068406800F002000028EBD1E8
:100A20002068006840F001002168086000F098FB31
:100A300005460DE000F094FB401B0A2808D9606AC7
:100A400040F400306062052084F820000120C2E7F5
:100A50002068406800F001000028EBD0207E0128CB
:100A600006D12068006840F080002168086005E039
:100A70002068006820F0800021680860607E0128FE
:100A800006D12068006840F040002168086005E059
:100A90002068006820F0400021680860A07E0128DE
:100AA00006D12068006840F020002168086005E059
:100AB0002068006820F0200021680860E07E01289E
:100AC00006D12068006820F010002168086005E069
:100AD0002068006840F0100021680860207F01282D
:100AE00006D12068006840F008002168086005E031
:100AF0002068006820F0080021680860607F0128F5
:100B000006D12068006840F004002168086005E014
:100B10002068006820F0040021680860D4E9020120
:100B2000084321690843616908436168491E084315
:100B30002168C86100206062012084F82000002044
:100B400049E7000010B586B0044624492068884271
:100B500041D100BF00BF2248806940F00400204915
:100B600088610846806900F00400019000BF00BF62
:100B700000BF00BF00BF0846806940F004008861E4
:100B80000846806900F00400019000BF00BF00BF6C
:100B900000BF0846C06940F00070C8610846C069DF
:100BA00000F00070019000BF00BF88140290022086
:100BB0000390012004900320059002A9094800F049
:100BC00017F94FF4006002900020039002A9054835
:100BD00000F00EF900BF06B010BD00000064004038
:100BE000001002400008014070B5044694F820004F
:100BF000012822D1022084F820002068006820F01B
:100C000001002168086000F0ABFA05460DE000F035
:100C1000A7FA401B0A2808D9606A40F400306062D5
:100C2000052084F82000012070BD2068406800F095
:100C300001000028EBD16062F6E7606A40F4002012
:100C400060620120F0E7000070B50446002594F8CA
:100C50002100022803D00420A0630125C1E0206800
:100C6000006820F00E00216808602068006820F00D
:100C70000100216808605C492068884252D95A49BD
:100C800078392068884201D1012047E0564964390B
:100C90002068884201D1102040E053495039206833
:100CA000884201D1801539E04F493C39206888429B
:100CB00001D1801432E04C4928392068884202D1A1
:100CC0004FF480302AE0484914392068884202D124
:100CD0004FF4801022E044492068884201D140044A
:100CE0001CE042492068884201D1012016E03F49BA
:100CF00014312068884201D110200FE03B4928318F
:100D00002068884201D1801508E038493C312068CC
:100D1000884201D1801401E04FF480303349091F2B
:100D2000086051E0304978392068884201D10120BB
:100D300047E02D4964392068884201D1102040E005
:100D4000294950392068884201D1801539E0264967
:100D50003C392068884201D1801432E02249283988
:100D60002068884202D14FF480302AE01E491439AD
:100D70002068884202D14FF4801022E01A4920688E
:100D8000884201D140041CE018492068884201D102
:100D9000012016E0154914312068884201D1102045
:100DA0000FE0124928312068884201D1801508E0FF
:100DB0000E493C312068884201D1801401E04FF493
:100DC0008030094980394860012084F8210000BF43
:100DD000002084F8200000BF606B10B12046616BDA
:100DE0008847284670BD0000800002400804024089
:100DF0002DE9F847024600239C467BE14FF00108AD
:100E000008FA03F4D1F8008008EA0400A0427DD17A
:100E1000DFF8F4A2D1F80480A8EB0A09D0453AD053
:100E200014DCB8F1030F50D009DCB8F1000F31D059
:100E3000B8F1010F1CD0B8F1020F49D120E0B8F190
:100E4000110F18D0B8F1120F42D11EE0B9F5881F6A
:100E500025D006DCB9F5803F20D0B9F5801F37D109
:100E60001AE0B9F5001F18D0B9F5041F30D117E00A
:100E7000D1F80CC02DE0D1F80C8008F1040C28E06A
:100E8000D1F80C8008F1080C23E0D1F80C8008F1AF
:100E90000C0C1EE000BF00BF00BF00BF00BF00BFC2
:100EA000D1F80880B8F1000F02D14FF0040C0BE02C
:100EB000D1F80880B8F1010F03D14FF0080C14618C
:100EC00002E04FF0080C546103E04FF0000C00E02A
:100ED00000BF00BFFF2801D8904601E002F10408DE
:100EE0004646FF2802D84FEA830803E0A3F108082A
:100EF0004FEA88084746D6F800804FF00F0909FAF4
:100F000007F928EA09080CFA07F900E07AE048EA4C
:100F10000908C6F80080D1F8048008F08058B8F1BC
:100F2000805F6FD100BFDFF8E481D8F8188048F007
:100F30000108DFF8D891C9F81880C846D8F8188099
:100F400008F00108CDF8008000BF00BF4FEAB938B3
:100F50004FEA930958F829504FEA83784FEA1879F5
:100F60004FF00F0808FA09F825EA0805DFF8A08114
:100F7000424502D14FF0000824E0DFF89881424555
:100F800002D14FF001081DE0DFF88C81424502D10B
:100F90004FF0020816E0DFF88481424502D14FF09D
:100FA00003080FE0DFF87881424502D14FF00408D2
:100FB00008E0DFF87081424502D14FF0050801E0FA
:100FC0004FF006084FEA83794FEA197908FA09F8D1
:100FD00048EA0505DFF850814FEA930948F829509F
:100FE000D1F8048008F48038B8F5803F0BD1DFF8E1
:100FF0003C81D8F8008048EA0008DFF83091C9F851
:1010000000800AE075E0DFF82481D8F8008028EA43
:101010000008DFF81891C9F80080D1F8048008F4BE
:101020000038B8F5003F0ED1DFF8008108F1040860
:10103000D8F8008048EA0008DFF8F09009F10409C8
:10104000C9F800800DE0DFF8E48008F10408D8F862
:10105000008028EA0008DFF8D49009F10409C9F8F3
:101060000080D1F8048008F48018B8F5801F0ED1F4
:10107000DFF8B88008F10808D8F8008048EA0008CE
:10108000DFF8A89009F10809C9F800800DE0DFF841
:101090009C8008F10808D8F8008028EA0008DFF8EA
:1010A0008C9009F10809C9F80080D1F8048008F48F
:1010B0000018B8F5001F0ED1DFF8708008F10C0899
:1010C000D8F8008048EA0008DFF8609009F10C09C0
:1010D000C9F800800DE0DFF8548008F10C08D8F85A
:1010E000008028EA0008DFF8449009F10C09C9F8EB
:1010F00000805B1CD1F8008028FA03F8B8F1000FDB
:101100007FF47CAEBDE8F8870000111000100240AB
:1011100000080140000C0140001001400014014093
:1011200000180140001C014008000140000401407B
:10113000024693680B400BB1012000E0002070478D
:1011400010B5C26821EA020302EA010443EA04433B
:10115000036110BD0AB1016101E00B040361704736
:101160000148006870470000100000200348006834
:1011700003490978084401490860704710000020BD
:101180001800002010B50848006840F0100006491B
:101190000860052000F080F80F2000F007F800F04C
:1011A0002BF8002010BD00000020024070B504465E
:1011B0000E4800784FF47A71B1FBF0F00C490968E1
:1011C000B1FBF0F5284600F05FFC08B1012070BDCE
:1011D000102C07D200222146501E00F01EF80548B0
:1011E000046001E00120F2E70020F0E71800002091
:1011F0000000002014000020704701460846002827
:1012000009DB00F01F0301229A4043099B0003F110
:10121000E023C3F8002100BF70472DE9F05F80464E
:101220000D461646002701F05FF8074639462A4664
:10123000334601F00700C0F1070ABAF1040F02D9E2
:101240004FF0040A01E0C0F1070AD14600F1040A98
:10125000BAF1070F02D24FF0000A01E0A0F1030A31
:10126000D4464FF0010A0AFA09FAAAF1010A0AEA79
:10127000020A0AFA0CFA4FF0010B0BFA0CFBABF165
:10128000010B0BEA030B4AEA0B042146404601F02E
:1012900033F8BDE8F09F000000BF00F00702064BE6
:1012A00019684FF6FF031940044B0B4343EA022130
:1012B000014B196000BF70470CED00E00000FA051B
:1012C00070B504460D460CB9012070BD5A4800683F
:1012D00000F00700A8420ED25748006820F007002F
:1012E0002843554908600846006800F00700A842F6
:1012F00001D00120E9E7207800F0020002281DD18A
:10130000207800F00400042805D14C48406840F4DF
:10131000E0604A494860207800F00800082805D1BC
:101320004648406840F4605044494860434840683B
:1013300020F0F000A168084340494860207800F0A0
:10134000010078B36068012806D13C48006800F4C9
:10135000003090B90120B8E76068022806D137480C
:10136000006800F0007040B90120AEE73348006823
:1013700000F0020008B90120A7E73048406820F0DB
:101380000300616808432D494860FFF7E9FE0646FF
:1013900009E0FFF7E5FE801B41F28831884202D95F
:1013A000032092E707E02548406800F00C006168E0
:1013B000B0EB810FEDD12048006800F00700A84293
:1013C0000ED91D48006820F0070028431A4908601C
:1013D0000846006800F00700A84201D0012074E729
:1013E000207800F00400042807D11448406820F455
:1013F000E060E168084311494860207800F0080087
:10140000082808D10D48406820F46050216940EA5E
:10141000C1000A49486000F03FF808494968C1F333
:101420000311074A515CC840064908600648006835
:10143000FFF7BCFE002048E70020024000100240F9
:10144000EC7600080000002014000020014800682D
:10145000704700000000002000B5FFF7F7FF0449C7
:101460004968C1F30221034A515CC84000BD000035
:1014700000100240FC76000800B5FFF7E7FF0449C2
:101480004968C1F3C221034A515CC84000BD000055
:1014900000100240FC760008F0B585B00FF26C0C2D
:1014A0009CE8E01001A8A0E8E0101CA52D680095BC
:1014B00000210022002300240020194D696801F05A
:1014C0000C05F5B1042D02D0082D19D101E0154805
:1014D00019E001ADC1F38346AC5D01F4803555B12F
:1014E0000F4D6D68C5F340451DF805200D4D654352
:1014F000B5FBF2F302E00C4D04FB05F3184602E0E5
:1015000000BF084800BF00BF05B0F0BD02030405DE
:10151000060708090A0B0C0D0E0F1010010200003F
:101520000010024000127A0000093D00F8B50446A0
:101530000CB90120F8BD207800F00100002878D017
:10154000F848406800F00C0004280CD0F5484068CA
:1015500000F00C00082811D1F248406800F48030F7
:10156000B0F5803F0AD1EF48006800F40030002851
:101570005FD0606800285CD10120DBE700BF6068B5
:10158000B0F5803F06D1E748006840F48030E54977
:10159000086028E0606858B9E248006820F48030AC
:1015A000E04908600846006820F4802008601AE0DE
:1015B0006068B0F5A02F0BD1DA48006840F48020B5
:1015C000D84908600846006840F4803008600AE0A6
:1015D000D448006820F48030D2490860084600688A
:1015E00020F48020086000BF606888B1FFF7B8FD74
:1015F000054606E0FFF7B4FD401B642801D903202F
:1016000098E7C848006800F400300028F2D010E0E5
:10161000FFF7A6FD054606E0FFF7A2FD401B642884
:1016200001D9032086E7BF48006800F40030002895
:10163000F2D1207800F00200022857D1B948406862
:1016400000F00C0050B1B748406800F00C000828CA
:1016500018D1B448406800F4803098B9B1480068A7
:1016600000F0020020B12069012801D0012061E7CB
:10167000AC48006820F0F800616940EAC100A9495F
:10168000086033E02069E8B10120A7490860FFF74E
:1016900067FD054606E0FFF763FD401B022801D900
:1016A000032047E79F48006800F002000028F2D0BE
:1016B0009C48006820F0F800616940EAC10099493F
:1016C000086013E0002098490860FFF749FD0546CF
:1016D00006E0FFF745FD401B022801D9032029E75A
:1016E0009048006800F002000028F2D1207800F055
:1016F000080008282DD1A069B8B101208B490860E5
:10170000FFF72EFD054606E0FFF72AFD401B0228E5
:1017100001D903200EE78348406A00F00200002848
:10172000F2D0012000F014FC13E000207F49086093
:10173000FFF716FD054606E0FFF712FD401B0228E5
:1017400001D90320F6E67748406A00F0020000283D
:10175000F2D1207800F00400042873D100277148EA
:10176000C06900F0805070B900BF6E48C06940F099
:1017700080506C49C8610846C06900F080500090F4
:1017800000BF00BF01276A48006800F48070B0B94C
:101790006748006840F4807065490860FFF7E0FC26
:1017A000054606E0FFF7DCFC401B642801D9032056
:1017B000C0E65F48006800F480700028F2D000BFE7
:1017C000E068012806D15748006A40F001005549F9
:1017D000086227E0E06858B95248006A20F001002A
:1017E000504908620846006A20F00400086219E0C7
:1017F000E06805280BD14B48006A40F004004949D5
:1018000008620846006A40F0010008620AE04548A4
:10181000006A20F00100434908620846006A20F08F
:101820000400086200BFE068A0B1FFF799FC05461C
:1018300009E0FFF795FC401B41F28831884202D94C
:10184000032077E622E03748006A00F00200002813
:10185000EFD012E0FFF784FC054608E0FFF780FCBC
:10186000401B41F28831884201D9032062E62D48AD
:10187000006A00F002000028F0D1012F05D12948AC
:10188000C06920F080502749C86100BFE069C8B333
:101890002448406800F00C00082860D0E069022865
:1018A00048D1002020490866FFF75AFC054606E0AB
:1018B000FFF756FC401B022801D903203AE61948DD
:1018C000006800F000700028F2D1206AB0F5803F77
:1018D00007D11448406820F40030A168084311493A
:1018E0004860D4E9080108430E49496821F474119D
:1018F00008430C49486001200B490866FFF730FC9B
:10190000054607E03DE0FFF72BFC401B022801D90C
:1019100003200FE60348006800F000700028F2D0B2
:101920002FE00000001002400000424280044242CA
:1019300000700040002014490866FFF711FC0546BE
:1019400006E0FFF70DFC401B022801D90320F1E55A
:101950000E48006800F000700028F2D111E0E06944
:10196000012800D1E6E50948466806F48031206A7E
:10197000814204D106F47011606A814201D00120D5
:10198000D8E50020D6E500000000424200100240E9
:1019900070B504460E4615461CB1A069B0F5807FAF
:1019A00001D1012070BD94F8410028B9002084F8CD
:1019B0004000204600F020F804F108012068FEF7FE
:1019C0008DFD3146A2682068FEF7C4FD2946236BD1
:1019D000D4E90102FEF760FDA168206850F82100FB
:1019E00040F00100A268216841F82200012084F83B
:1019F00041000020D6E7000010B586B0044600BFC5
:101A00001E48406940F480701C494861084640699E
:101A100000F48070019000BF00BF00BF08468069DD
:101A200040F0200088610846806900F020000190A5
:101A300000BF00BF00BF0846806940F040008861D9
:101A40000846806900F04000019000BF00BF4CF2E2
:101A5000037002900220039001200490032005905F
:101A600002A90748FFF7C4F94FF68070029002A957
:101A70000448FFF7BDF906B010BD00000010024099
:101A8000001401400018014070B504462546681E48
:101A9000B0F1807F01D301200FE0681E4FF0E021FC
:101AA00048610F214FF0FF3000F026FC00204FF07E
:101AB000E021886107200861002070BD10B5044650
:101AC0000CB9012010BD94F83D0028B9002084F81D
:101AD0003C00204600F025F8022084F83D00211D3E
:101AE000206800F071FA012084F8460000BF84F8F5
:101AF0003E0001213F200155402001554120015564
:101B000000BF00BF012084F842004320015544205B
:101B100001554520015500BF012084F83D000020FB
:101B2000D0E77047014691F83D00012801D001201F
:101B30007047022081F83D000868C06840F001004D
:101B40000B68D860164B0868984213D0154B08688C
:101B500098420FD00868B0F1804F0BD0124B086844
:101B6000984207D0114B0868984203D0104B086880
:101B700098420CD10868806800F00702062A0CD051
:101B80000868006840F001000B68186005E008680C
:101B9000006840F001000B6818600020C8E70000F2
:101BA000002C0140003401400004004000080040C7
:101BB000000C0040704700002DE9F0470446206803
:101BC00005682068C668206847694FF00008C1466C
:101BD00005F00F08B8F1000F0AD105F0200038B168
:101BE00006F0200020B1204600F066FABDE8F0873C
:101BF000B8F1000F71D007F0010018B906F4907029
:101C000000286AD005F0010030B106F4807018B1E8
:101C1000E06B40F00100E06305F0040030B107F034
:101C2000010018B1E06B40F00200E06305F0020033
:101C300030B107F0010018B1E06B40F00400E06340
:101C400005F0080048B106F0200010B907F00100C7
:101C500018B1E06B40F00800E063E06B68B305F09A
:101C6000200028B106F0200010B1204600F024FA30
:101C700020684069C0F38019E06B00F0080010B9DB
:101C8000B9F1000F22D0204600F0F6F92068406933
:101C900000F04000B0B12068406920F040002168A9
:101CA0004861606B50B11848616B4863606BFEF728
:101CB000CBFF10B1606B416B88470CE02046FFF70B
:101CC00079FF08E02046FFF775FF04E02046FFF7A4
:101CD00071FF0020E06389E7FFE705F0800030B185
:101CE00006F0800018B1204600F0B4FA7EE705F057
:101CF000400030B106F0400018B1204600F0CCF9A9
:101D000074E700BF72E700006520000810B50446C4
:101D10000CB9012010BDA06900B100E000BF94F82B
:101D2000390028B9002084F83800204600F028F84F
:101D3000242084F839002068C06820F4005021680D
:101D4000C860204600F008FA2068006920F490403E
:101D5000216808612068406920F02A0021684861F4
:101D60002068C06840F400502168C8600020E0632B
:101D7000202084F8390084F83A000020CAE70000E7
:101D800010B586B004462849206888424AD100BF71
:101D900000BF2648806940F0040024498861084655
:101DA000806900F00400019000BF00BF00BF00BFC9
:101DB00000BF0846806940F00400886108468069D9
:101DC00000F00400019000BF00BF00BF00BF00BFD3
:101DD0000846806940F4804088610846806900F4C4
:101DE0008040019000BF00BF00BF48150290022054
:101DF0000390012004900320059002A90C48FEF7EF
:101E0000F7FF4FF4806002900020039002A9084879
:101E1000FEF7EEFF2520FFF7F0F9032211462520FB
:101E2000FFF7FBF906B010BD00380140001002407A
:101E30000008014010B5034693F83A0020282FD13E
:101E400001B10AB9012010BD00BF93F83800012884
:101E500001D10220F7E7012083F8380000BF996222
:101E60009A85DA850020D863222083F83A0000BFE3
:101E7000002083F8380000BF1868C06840F4807004
:101E80001C68E0601868406940F001001C686061EF
:101E90001868C06840F020001C68E0600020D2E7AD
:101EA0000220D0E710B504462049206888423BD183
:101EB0001F48008800F4004088BB1D48008800F4DB
:101EC000804070B11B4800780A2803D000201849D0
:101ED000088024E01648008840F400401449088037
:101EE0001DE0144800780D2806D11148008840F400
:101EF00080400F49088012E00E4800780C4909889C
:101F0000C1F30D010C4A505409480088401C08498F
:101F1000088008460088C72801DD002008800122CB
:101F200004490648FFF786FF10BD00000038014055
:101F30000C0000200E0000205C0100202402002084
:101F4000704700BFFEE700BFFEE770477047000024
:101F500008B508490968C9084FF47A72B1FBF2F173
:101F60004143009100BF00BF00994A1E0092002922
:101F7000F9D108BD00000020704710B5FFF7F6F852
:101F800010BD704710B50E480068C06800F0010031
:101F900078B10C49086980470020094909684862FE
:101FA00000BF642006490968C86264210448C16012
:101FB00000BF6FF0010002490968086110BD000010
:101FC000180300206800002010B50268204B9842DA
:101FD0000ED0204B98420BD0B0F1804F08D01E4B52
:101FE000984205D01D4B984202D01D4B984203D118
:101FF00022F070024B681A43154B98420ED0154BD5
:1020000098420BD0B0F1804F08D0134B984205D0C6
:10201000124B984202D0124B984203D122F44072E4
:10202000CB681A4322F080034C6943EA0402026041
:102030008B68C3620B688362054B984202D0054BE4
:10204000984201D10B6903630123436110BD000075
:10205000002C014000340140000400400008004012
:10206000000C004070B505466C6A0020E085E084F5
:102070002046FFF79FFD70BD0168C96821F490718B
:102080000268D1600168496921F00101026851616B
:10209000202180F83A10704710B504462068C068C7
:1020A00020F040002168C860202084F839002046D4
:1020B000FFF746FF002010BD70B5044694F83A00C3
:1020C000222847D1A068B0F5805F0CD1206950B9B3
:1020D0000025A66A20684068C0F308003080A06A26
:1020E000801CA06215E0A56A0026A068B0F5805F9C
:1020F00003D0A06828B9206918B920684068287002
:1021000004E02068406800F07F002870A06A401C4E
:10211000A062E08D401E80B2E085C8B92068C0682A
:1021200020F020002168C8602068C06820F480701A
:102130002168C8602068406920F00100216848617A
:10214000202084F83A002046FFF7ACFE002070BD46
:102150000020FCE70220FAE770B50446216809690F
:1021600021F44051E2681143226811612269A1689B
:102170001143626941EA02052168C96841F20C62B3
:10218000914329432268D1602168496921F4407153
:10219000A2691143226851612D4A2168914202D1FE
:1021A000FFF76AF901E0FFF757F900EBC00101EB17
:1021B000001162689200B1FBF2F100EBC00202EB89
:1021C000001263689B00B2FBF3F26423B2FBF3F2EC
:1021D00002EBC20303EB0212A1EB8201322202EBFB
:1021E00001116422B1FBF2F101F0F00100EBC00239
:1021F00002EB001263689B00B2FBF3F26423B2FBB4
:10220000F3F201EB021200EBC00101EB0011636875
:102210009B00B1FBF3F100EBC00303EB0013666816
:10222000B600B3FBF6F36426B3FBF6F303EBC30689
:1022300006EB0313A1EB8301322303EB01116423AB
:10224000B1FBF3F101F00F0111442268916070BD00
:1022500000380140014691F83900212828D18868CA
:10226000B0F5805F0BD1086948B90A6A1088C0F3DD
:1022700008000B685860086A801C086205E00B6A59
:10228000581C086218780B685860C88C401E80B2D1
:10229000C88458B90868C06820F080000B68D8600E
:1022A0000868C06840F040000B68D86000207047A4
:1022B0000220FCE710B50248FFF77EFC10BD0000CD
:1022C0002402002000BFFEE70FB4054B10B503A9A0
:1022D000044A029800F034F810BC5DF814FB0000CA
:1022E0002D2900080800002002480068C0F30220E1
:1022F000704700000CED00E010B5002804DB0A0771
:10230000130E054A135406E00A07140E034A00F0A0
:102310000F031B1FD45410BD00E400E018ED00E0D3
:1023200002E008C8121F08C1002AFAD1704770479E
:10233000002001E001C1121F002AFBD170470000FC
:102340002DE9FF4F8DB00F460546002606E02528F3
:102350000BD0DDE90F1290476D1C761C2878002801
:10236000F5D111B03046BDE8F08F0024A246A14659
:102370000122EC4900E0044315F8013F203B02FA3A
:1023800003F00842F7D128782A2810D06FF02F02E6
:102390002878A0F13001092914D80AEB8A0102EB50
:1023A000410144F0020400EB010A6D1CF0E701CF8B
:1023B0005FEA000A03D544F40054CAF1000A44F06D
:1023C00002046D1C28782E2817D115F8010F44F04F
:1023D00004042A280ED06FF02F022878A0F13001D3
:1023E00009290AD809EB890102EB410100EB010937
:1023F0006D1CF2E757F8049B6D1C28786C280FD0F1
:1024000006DC4C2817D068280DD06A2814D104E0C7
:10241000742810D07A280FD10DE044F400140AE09B
:1024200044F4801401E044F440146978814202D1FC
:1024300004F580146D1C6D1C2A786E2A1FD00CDCEC
:10244000632A31D004DC002A8BD0582A11D1A3E0B2
:10245000642A68D0692A0CD165E0732A2ED004DC86
:102460006F2A73D0702A04D19BE0752A6FD0782A26
:102470006ED01046DDE90F129047761C50E1C4F390
:102480000250022806D0032809D0042801CF09D021
:10249000066045E101CFF117C0E9006140E101CFDD
:1024A00006803DE106703BE117F8040B8DF8000053
:1024B00000208DF80100EB46012003E057F804BB33
:1024C0004FF0FF3061074FF0000102D40DE008F13A
:1024D0000101884649450FDA8045F8DB1BF80810F2
:1024E0000029F4D108E008F1010188468142FADBB5
:1024F0001BF808100029F6D1DDE90F23AAEB08002C
:102500008146214600F036F9304400EB080604E02D
:10251000DDE90F121BF8010B9047B8F10108F7D263
:1025200021464846F7E00A21C4F302534FF0000B5E
:102530000891022B04D001CFC117032B09D00AE068
:10254000FF1D27F00707F7E8020108E032E01FE06F
:1025500020E000B2C117042B01D140B2C117031E05
:1025600071F1000307DA4FF0000CD0EB0C006CEBBC
:1025700001012D2302E0230504D52B238DF82430FF
:10258000012303E0E30701D02023F7E7984658E052
:102590000A2110E010210EE010204FF0000B0890EF
:1025A0000CE010214FF0000B44F004044FF0080938
:1025B000089103E008214FF0000B0891C4F3025387
:1025C000022B04D001CF0021032B06D006E0FF1D13
:1025D00027F00707F7E8020103E080B2042B00D1DF
:1025E000C0B24FF0000823072BD5702A07D0DDF8C2
:1025F00020C08CF0100C5CEA0B0C05D00EE04023E0
:102600008DF82430012308E050EA010306D030237E
:102610008DF824308DF8252002239846DDF820C05F
:102620008CF0080C5CEA0B0C0BD150EA010301D1D1
:10263000630706D530238DF824304FF00108A9F147
:102640000109582A04D038A20B9208AA0A920BE07A
:102650003AA2F9E75B46089AFDF730FE0B9B9B5CBC
:102660000A9A521E0A92137050EA0102F2D10A9895
:10267000ADEB000000F1200B600702D524F480349C
:1026800001E04FF00109D94502DDA9EB0B0000E0A4
:10269000002000EB0B0141440890AAEB010AE00383
:1026A00006D4DDE90F232146504600F063F80644C6
:1026B0004FF0000908E009A911F80900DDE90F123F
:1026C000904709F10109761CC145F4DBE0030CD504
:1026D000DDE90F232146504600F04CF8064404E0A3
:1026E000DDE90F1230209047761C0899481E0890AB
:1026F0000029F5DC08E00A980A990078491C0A913B
:10270000DDE90F129047761CBBF10001ABF1010B24
:10271000F1DC21465046DDE90F2300F019F80644AC
:102720006D1C1BE609280100303132333435363751
:10273000383961626364656600000000303132330D
:1027400034353637383941424344454600000000AD
:102750002DE9F041044600251E461746880404D49E
:1027600005E039462020B0476D1C641EF9D5284687
:10277000BDE8F0812DE9F041044600251E46904653
:10278000C80301D5302700E02027880404D505E0E0
:1027900041463846B0476D1C641EF9D52846BDE851
:1027A000F08100002DE9F0418AB004460D4616463E
:1027B0001F46DDF840801C481C49086008464760F9
:1027C000C0F80880C4600661456100210176417649
:1027D00081760121C176002101774177FEF7F7F874
:1027E00018B101200AB0BDE8F081002005900690E4
:1027F0000120079000200090019002900390049027
:10280000012008900E20099069460848FDF76EFFE8
:1028100008B10220E6E70548FEF7E6F908B1032013
:10282000E0E70020DEE7000000640040BC0200207A
:1028300070B504460D4600210E48FDF7DCFF08B9CF
:10284000002070BD2B460C4A00210A48FDF7E7FF27
:1028500008B10020F5E708480068A04205D1064805
:10286000806810B90448C06808B10020E9E7024850
:10287000007CE6E7BC020020FC020020F8B504461C
:102880000D461646012000900C480460446000206C
:102890000A498860C860084606616B462A460848AF
:1028A000FDF779FE08B10120F8BD00BF0448FEF72E
:1028B00073F80328FAD10020F6E70000E4020020B4
:1028C000BC0200200149086070470000040000209D
:1028D00010B504464FF47A7104FB01F000F002F8E1
:1028E00010BD000070B5034600224FF0E026756968
:1028F0000D4E366803FB06F44FF0E026B16910E098
:102900004FF0E026B06988420BD0884202D20E1AFE
:10291000324402E02E1A0E4432440146A24200D351
:1029200000E0EDE700BF70BD0400002000BF054AD5
:10293000126802F04002002AF9D0C2B2014B1B1DFE
:102940001A6070470038014000B585B000BF00BF75
:102950003648806940F04000344988610846806903
:1029600000F04000009000BF00BF00BF00BF00BFEC
:102970000846806940F0400088610846806900F0A0
:102980004000009000BF00BF00BF00BF00BF08466E
:10299000806940F0400088610846806900F040008E
:1029A000009000BF00BF00BF00BF00BF08468069A5
:1029B00040F0040088610846806900F0040000903F
:1029C00000BF00BF00BF1020019000200290012036
:1029D00003900320049001A91548FEF709FA082086
:1029E000019000200290012003900320049001A98F
:1029F0000F48FEF7FDF9042001900020029001200D
:102A000003900320049001A90948FEF7F1F9012081
:102A1000019000200290022003900320049001A95D
:102A20000448FEF7E5F905B000BD000000100240C3
:102A3000001801400008014070B50446002514B19B
:102A400001202B4908702A480078002834D0102132
:102A50002848FEF76DFB78B108212648FEF768FB91
:102A600050B104212348FEF763FB28B1012122481D
:102A7000FEF75EFB01281FD10A20FFF729FF002087
:102A80001B49087010211B48FEF752FB00B90125B5
:102A900008211848FEF74CFB00B90225042115480F
:102AA000FEF746FB00B9032501211348FEF740FB62
:102AB00001281BD1042519E010210E48FEF738FB30
:102AC000012813D108210B48FEF732FB01280DD154
:102AD00004210848FEF72CFB012807D101210648F4
:102AE000FEF726FB10B9012001490870284670BD89
:102AF00019000020001801400008014070B504468C
:102B0000002609480588408845430021084603F00F
:102B10008BF803F093FA00BF02E004480480761CAF
:102B2000AE42FAD370BD0000AC0200200008006C79
:102B300010B5044658488471002C58D1F0205649ED
:102B400008804FF4A07048800846808845F21051F4
:102B5000884210D14FF430504F4908814FF428502B
:102B600048814FF42C5088814FF4F07008804FF466
:102B7000487048801AE04848808841F663118842CE
:102B80000DD12C20444908812B2048812A2088819E
:102B90004FF4F07008804FF44870488006E02C2015
:102BA0003D4908812A2048812B2088813A48808825
:102BB00045F21031884205D03748808847F2967137
:102BC000884206D14FF4A070334908804FF4F0706A
:102BD00048803148808849F60601884258D14FF430
:102BE000F0702D4908804FF44870488050E04FF451
:102BF000A07029490880F02048800846808845F266
:102C00001051884210D14FF43050234908814FF4BD
:102C1000285048814FF42C5088814FF44870088028
:102C20004FF4F070488020E01B48808841F6631123
:102C3000884205D01848808849F6060188420DD19F
:102C40002C20154908812A2048812B2088814FF4A7
:102C5000487008804FF4F070488006E02C200E4940
:102C600008812A2048812B2088810B48808845F2E2
:102C70001031884205D00848808847F29671884212
:102C800006D14FF4F070044908804FF4A0704880DA
:102C9000002002F0ABFE10BDAC02002070B505466E
:102CA0000E4614463146284602F0BEFF03F0C6F930
:102CB00001490C8070BD00000008006C10B5CF20E9
:102CC00003F0B0F9002003F0A1F9C12003F09EF950
:102CD000302003F09BF9ED2003F0A4F9642003F009
:102CE00095F9032003F092F9122003F08FF9812067
:102CF00003F08CF9E82003F095F9852003F086F9BC
:102D0000102003F083F97A2003F080F9CB2003F040
:102D100089F9392003F07AF92C2003F077F90020A3
:102D200003F074F9342003F071F9022003F06EF916
:102D3000F72003F077F9202003F068F9EA2003F088
:102D400071F9002003F062F9002003F05FF9C02060
:102D500003F068F91B2003F059F9C12003F062F970
:102D6000012003F053F9C52003F05CF9302003F093
:102D70004DF9302003F04AF9C72003F053F9B7208A
:102D800003F044F9362003F04DF9482003F03EF9F2
:102D90003A2003F047F9552003F038F9B12003F049
:102DA00041F9002003F032F91A2003F02FF9B62080
:102DB00003F038F90A2003F029F9A22003F026F9DC
:102DC000F22003F02FF9002003F020F9262003F071
:102DD00029F9012003F01AF9E02003F023F90F206C
:102DE00003F014F92A2003F011F9282003F00EF95A
:102DF000082003F00BF90E2003F008F9082003F077
:102E000005F9542003F002F9A92003F0FFF843204C
:102E100003F0FCF80A2003F0F9F80F2003F0F6F8AD
:102E2000002003F0F3F8002003F0F0F8002003F096
:102E3000EDF8002003F0EAF8E12003F0F3F80020B9
:102E400003F0E4F8152003F0E1F8172003F0DEF8B2
:102E5000072003F0DBF8112003F0D8F8062003F078
:102E6000D5F82B2003F0D2F8562003F0CFF83C2001
:102E700003F0CCF8052003F0C9F8102003F0C6F8E1
:102E80000F2003F0C3F83F2003F0C0F83F2003F009
:102E9000BDF80F2003F0BAF82B2003F0C3F8002090
:102EA00003F0B4F8002003F0B1F8012003F0AEF80D
:102EB0003F2003F0ABF82A2003F0B4F8002003F021
:102EC000A5F8002003F0A2F8002003F09FF8EF20FF
:102ED00003F09CF8112003F0A5F87820FFF7F8FC28
:102EE000292003F09FF810BD10B5FF2003F09AF8D9
:102EF000FF2003F08BF8982003F088F8062003F0F9
:102F000085F8BC2003F08EF8012003F07FF80F2035
:102F100003F07CF8612003F079F8FF2003F076F8E5
:102F2000012003F073F8012003F070F80B2003F088
:102F30006DF8102003F06AF8372003F067F863207B
:102F400003F064F8FF2003F061F8FF2003F05EF85F
:102F5000012003F05BF8012003F058F8002003F093
:102F600055F8002003F052F8FF2003F04FF85220EC
:102F700003F04CF8012003F049F8002003F046F874
:102F8000402003F043F8BD2003F04CF8012003F08B
:102F90003DF8232003F03AF8452003F037F8672086
:102FA00003F034F8012003F031F8232003F02EF869
:102FB000452003F02BF8672003F028F8BE2003F02B
:102FC00031F8002003F022F8012003F01FF8AB20B5
:102FD00003F01CF8602003F019F8222003F016F823
:102FE000222003F013F8222003F010F8222003F02F
:102FF0000DF8222003F00AF8C72003F013F836205A
:1030000003F004F8ED2003F00DF87F2002F0FEFF3E
:103010000F2002F0FBFFC02003F004F80F2002F0A5
:10302000F5FF0B2002F0F2FF0A2002F0EFFFFC2078
:1030300002F0F8FF082002F0E9FFDF2002F0F2FFC3
:10304000002002F0E3FF002002F0E0FF002002F089
:10305000DDFF002002F0DAFF002002F0D7FF202081
:1030600002F0D4FFF32002F0DDFF742002F0CEFF67
:10307000B42002F0D7FF002002F0C8FF002002F0C9
:10308000C5FF002002F0C2FFF72002F0CBFF822034
:1030900002F0BCFFB12002F0C5FF002002F0B6FF35
:1030A000132002F0B3FF132002F0B0FFF22002F071
:1030B000B9FF802002F0AAFF042002F0A7FF402001
:1030C00002F0A4FF282002F0A1FFC12002F0AAFF15
:1030D000172002F09BFF882002F098FF882002F062
:1030E00095FF202002F092FFE02002F09BFF0020DD
:1030F00002F08CFF0A2002F089FF122002F086FF06
:10310000102002F083FF0E2002F080FF202002F04A
:103110007DFFCC2002F07AFF072002F077FF062027
:1031200002F074FF0B2002F071FF0E2002F06EFF20
:103130000F2002F06BFF0D2002F068FF152002F057
:1031400065FF102002F062FF002002F05FFFE12027
:1031500002F068FF002002F059FF0B2002F056FF3A
:10316000132002F053FF0D2002F050FF0E2002F05A
:103170004DFF1B2002F04AFF712002F047FF06209E
:1031800002F044FF062002F041FF0A2002F03EFF59
:103190000F2002F03BFF0E2002F038FF0F2002F05C
:1031A00035FF152002F032FF0C2002F02FFF002027
:1031B00002F02CFF2A2002F035FF002002F026FF4B
:1031C000002002F023FF012002F020FFDF2002F0A8
:1031D0001DFF2B2002F026FF002002F017FF002029
:1031E00002F014FF032002F011FF1F2002F00EFF77
:1031F0003A2002F017FF552002F008FF362002F0B7
:1032000011FF002002F002FF112002F00BFF7820D6
:10321000FFF75EFB292002F005FF1420FFF758FBA3
:103220002C2002F0FFFE10BD10B5ED2002F0FAFEDA
:10323000012002F0EBFEFE2002F0E8FEEE2002F09C
:10324000F1FEDE2002F0E2FE212002F0DFFEF1209E
:1032500002F0E8FE012002F0D9FEDF2002F0E2FEDB
:10326000102002F0D3FEC42002F0DCFE8F2002F01A
:10327000CDFEC62002F0D6FE002002F0C7FEE220FE
:1032800002F0C4FEE22002F0C1FEE22002F0BEFE27
:10329000BF2002F0C7FEAA2002F0B8FEB02002F064
:1032A000C1FE0D2002F0B2FE002002F0AFFE0D20A4
:1032B00002F0ACFE002002F0A9FE112002F0A6FEF2
:1032C000002002F0A3FE192002F0A0FE002002F070
:1032D0009DFE212002F09AFE002002F097FE2D2094
:1032E00002F094FE002002F091FE3D2002F08EFEDE
:1032F000002002F08BFE5D2002F088FE002002F02C
:1033000085FE5D2002F082FE002002F07FFEB120EB
:1033100002F088FE802002F079FE002002F076FEA6
:103320008B2002F073FE002002F070FE962002F067
:103330006DFE002002F06AFEB22002F073FE002053
:1033400002F064FE002002F061FE022002F05EFE48
:10335000002002F05BFE032002F058FE002002F085
:1033600055FEB32002F05EFE002002F04FFE00206A
:1033700002F04CFE002002F049FE002002F046FE62
:10338000002002F043FE002002F040FE002002F088
:103390003DFE002002F03AFE002002F037FE002041
:1033A00002F034FE002002F031FE002002F02EFE7A
:1033B000002002F02BFE002002F028FE002002F088
:1033C00025FE002002F022FE002002F01FFE002059
:1033D00002F01CFE002002F019FE002002F016FE92
:1033E000002002F013FE002002F010FE002002F088
:1033F0000DFE002002F00AFEB42002F013FE8B2026
:1034000002F004FE002002F001FE962002F0FEFD14
:10341000002002F0FBFDA12002F0F8FD002002F0E8
:10342000F5FDB52002F0FEFD022002F0EFFD0020C8
:1034300002F0ECFD032002F0E9FD002002F0E6FDC1
:10344000042002F0E3FD002002F0E0FDB62002F0CF
:10345000E9FD002002F0DAFD002002F0D7FDB720E0
:1034600002F0E0FD002002F0D1FD002002F0CEFDD0
:103470003F2002F0CBFD002002F0C8FD5E2002F0EC
:10348000C5FD002002F0C2FD642002F0BFFD002057
:1034900002F0BCFD8C2002F0B9FD002002F0B6FD68
:1034A000AC2002F0B3FD002002F0B0FDDC2002F001
:1034B000ADFD002002F0AAFD702002F0A7FD002063
:1034C00002F0A4FD902002F0A1FD002002F09EFD7C
:1034D000EB2002F09BFD002002F098FDDC2002F0C2
:1034E00095FD002002F092FDB82002F09BFD002027
:1034F00002F08CFD002002F089FD002002F086FD24
:10350000002002F083FD002002F080FD002002F088
:103510007DFD002002F07AFD002002F077FDBA2048
:1035200002F080FD242002F071FD002002F06EFD0B
:10353000002002F06BFD002002F068FDC12002F0C7
:1035400071FD202002F062FD002002F05FFD54209A
:1035500002F05CFD002002F059FDFF2002F056FD54
:10356000002002F053FDC22002F05CFD0A2002F0B0
:103570004DFD002002F04AFD042002F047FD00202E
:1035800002F044FDC32002F04DFD3C2002F03EFD60
:10359000002002F03BFD3A2002F038FD002002F04E
:1035A00035FD392002F032FD002002F02FFD3720DA
:1035B00002F02CFD002002F029FD3C2002F026FD47
:1035C000002002F023FD362002F020FD002002F052
:1035D0001DFD322002F01AFD002002F017FD2F2001
:1035E00002F014FD002002F011FD2C2002F00EFD6F
:1035F000002002F00BFD292002F008FD002002F05F
:1036000005FD262002F002FD002002F0FFFC242030
:1036100002F0FCFC002002F0F9FC242002F0F6FC91
:10362000002002F0F3FC232002F0F0FC002002F066
:10363000EDFC3C2002F0EAFC002002F0E7FC362022
:1036400002F0E4FC002002F0E1FC322002F0DEFC9B
:10365000002002F0DBFC2F2002F0D8FC002002F05A
:10366000D5FC2C2002F0D2FC002002F0CFFC292057
:1036700002F0CCFC002002F0C9FC262002F0C6FCBF
:10368000002002F0C3FC242002F0C0FC002002F065
:10369000BDFC242002F0BAFC002002F0B7FC23207D
:1036A00002F0B4FC002002F0B1FCC42002F0BAFC2D
:1036B000622002F0ABFC002002F0A8FC052002F022
:1036C000A5FC002002F0A2FC842002F09FFC002058
:1036D00002F09CFCF02002F099FC002002F096FC25
:1036E000182002F093FC002002F090FCA42002F0CD
:1036F0008DFC002002F08AFC182002F087FC0020DC
:1037000002F084FC502002F081FC002002F07EFCDC
:103710000C2002F07BFC002002F078FC172002F065
:1037200075FC002002F072FC952002F06FFC002076
:1037300002F06CFCF32002F069FC002002F066FC51
:10374000E62002F063FC002002F060FCC52002F0DD
:1037500069FC322002F05AFC002002F057FC4420A1
:1037600002F054FC002002F051FC652002F04EFCF7
:10377000002002F04BFC762002F048FC002002F012
:1037800045FC882002F042FC002002F03FFCC620ED
:1037900002F048FC202002F039FC002002F036FC48
:1037A000172002F033FC002002F030FC012002F070
:1037B0002DFC002002F02AFCC72002F033FC002080
:1037C00002F024FC002002F021FC002002F01EFC8C
:1037D000002002F01BFCC82002F024FC002002F0B4
:1037E00015FC002002F012FC002002F00FFC00206B
:1037F00002F00CFCC92002F015FC002002F006FCCF
:10380000002002F003FC002002F000FC002002F087
:10381000FDFB002002F0FAFB002002F0F7FB002085
:1038200002F0F4FB002002F0F1FB002002F0EEFBBE
:10383000002002F0EBFB002002F0E8FB002002F089
:10384000E5FB002002F0E2FB002002F0DFFB00209D
:1038500002F0DCFB002002F0D9FBE02002F0E2FBEA
:10386000162002F0D3FB002002F0D0FB1C2002F057
:10387000CDFB002002F0CAFB212002F0C7FB002094
:1038800002F0C4FB362002F0C1FB002002F0BEFBB8
:10389000462002F0BBFB002002F0B8FB522002F0F1
:1038A000B5FB002002F0B2FB642002F0AFFB002069
:1038B00002F0ACFB7A2002F0A9FB002002F0A6FB8C
:1038C0008B2002F0A3FB002002F0A0FB992002F065
:1038D0009DFB002002F09AFBA82002F097FB00203D
:1038E00002F094FBB92002F091FB002002F08EFB65
:1038F000C42002F08BFB002002F088FBCA2002F0FB
:1039000085FB002002F082FBD22002F07FFB00202A
:1039100002F07CFBD92002F079FB002002F076FB5C
:10392000E02002F073FB002002F070FBF32002F0B5
:103930006DFB002002F06AFBE12002F073FB162011
:1039400002F064FB002002F061FB1C2002F05EFB31
:10395000002002F05BFB222002F058FB002002F066
:1039600055FB362002F052FB002002F04FFB4520B1
:1039700002F04CFB002002F049FB522002F046FB13
:10398000002002F043FB642002F040FB002002F024
:103990003DFB7A2002F03AFB002002F037FB8B203F
:1039A00002F034FB002002F031FB992002F02EFBE4
:1039B000002002F02BFBA82002F028FB002002F0E0
:1039C00025FBB92002F022FB002002F01FFBC420DF
:1039D00002F01CFB002002F019FBCA2002F016FBCB
:1039E000002002F013FBD22002F010FB002002F0B6
:1039F0000DFBD82002F00AFB002002F007FBE020BC
:103A000002F004FB002002F001FBF32002F0FEFABA
:103A1000002002F0FBFAE22002F004FB052002F095
:103A2000F5FA002002F0F2FA0B2002F0EFFA002083
:103A300002F0ECFA1B2002F0E9FA002002F0E6FAAC
:103A4000342002F0E3FA002002F0E0FA442002F011
:103A5000DDFA002002F0DAFA4F2002F0D7FA002057
:103A600002F0D4FA612002F0D1FA002002F0CEFA7E
:103A7000792002F0CBFA002002F0C8FA882002F088
:103A8000C5FA002002F0C2FA972002F0BFFA002027
:103A900002F0BCFAA62002F0B9FA002002F0B6FA51
:103AA000B72002F0B3FA002002F0B0FAC22002F010
:103AB000ADFA002002F0AAFAC72002F0A7FA00200F
:103AC00002F0A4FAD12002F0A1FA002002F09EFA3E
:103AD000D62002F09BFA002002F098FADD2002F0D6
:103AE00095FA002002F092FAF32002F08FFA0020FB
:103AF00002F08CFAE32002F095FA052002F086FA33
:103B0000002002F083FA0A2002F080FA002002F07E
:103B10007DFA1C2002F07AFA002002F077FA3320B6
:103B200002F074FA002002F071FA442002F06EFAFA
:103B3000002002F06BFA502002F068FA002002F038
:103B400065FA622002F062FA002002F05FFA782043
:103B500002F05CFA002002F059FA882002F056FACE
:103B6000002002F053FA972002F050FA002002F0F1
:103B70004DFAA62002F04AFA002002F047FAB720D8
:103B800002F044FA002002F041FAC22002F03EFAAC
:103B9000002002F03BFAC72002F038FA002002F0C1
:103BA00035FAD12002F032FA002002F02FFAD520A7
:103BB00002F02CFA002002F029FADD2002F026FAA9
:103BC000002002F023FAF32002F020FA002002F095
:103BD0001DFAE42002F026FA012002F017FA002074
:103BE00002F014FA012002F011FA002002F00EFA9D
:103BF000022002F00BFA002002F008FA2A2002F05C
:103C000005FA002002F002FA3C2002F0FFF9002041
:103C100002F0FCF94B2002F0F9F9002002F0F6F96D
:103C20005D2002F0F3F9002002F0F0F9742002F0B8
:103C3000EDF9002002F0EAF9842002F0E7F9002013
:103C400002F0E4F9932002F0E1F9002002F0DEF93D
:103C5000A22002F0DBF9002002F0D8F9B32002F034
:103C6000D5F9002002F0D2F9BE2002F0CFF90020F1
:103C700002F0CCF9C42002F0C9F9002002F0C6F924
:103C8000CD2002F0C3F9002002F0C0F9D32002F0E9
:103C9000BDF9002002F0BAF9DD2002F0B7F90020EA
:103CA00002F0B4F9F32002F0B1F9002002F0AEF90D
:103CB000E52002F0B7F9002002F0A8F9002002F098
:103CC000A5F9002002F0A2F9002002F09FF90220DD
:103CD00002F09CF9002002F099F9292002F096F9EF
:103CE000002002F093F93C2002F090F9002002F04D
:103CF0008DF94B2002F08AF9002002F087F95D204F
:103D000002F084F9002002F081F9742002F07EF9BB
:103D1000002002F07BF9842002F078F9002002F004
:103D200075F9932002F072F9002002F06FF9A220D9
:103D300002F06CF9002002F069F9B32002F066F994
:103D4000002002F063F9BE2002F060F9002002F0CA
:103D50005DF9C42002F05AF9002002F057F9CD2095
:103D600002F054F9002002F051F9D32002F04EF98C
:103D7000002002F04BF9DC2002F048F9002002F0AC
:103D800045F9F32002F042F9002002F03FF9E62065
:103D900002F048F9112002F039F9002002F036F95A
:103DA000342002F033F9002002F030F9562002F0FE
:103DB0002DF9002002F02AF9762002F027F90020E0
:103DC00002F024F9772002F021F9002002F01EF918
:103DD000662002F01BF9002002F018F9882002F09A
:103DE00015F9002002F012F9992002F00FF90020D5
:103DF00002F00CF9BB2002F009F9002002F006F9EC
:103E0000992002F003F9002002F000F9662002F088
:103E1000FDF8002002F0FAF8552002F0F7F8002033
:103E200002F0F4F8552002F0F1F8002002F0EEF86C
:103E3000452002F0EBF8002002F0E8F8432002F001
:103E4000E5F8002002F0E2F8442002F0DFF800205C
:103E500002F0DCF8E72002F0E5F8322002F0D6F8B4
:103E6000002002F0D3F8552002F0D0F8002002F034
:103E7000CDF8762002F0CAF8002002F0C7F86620DC
:103E800002F0C4F8002002F0C1F8672002F0BEF88A
:103E9000002002F0BBF8672002F0B8F8002002F022
:103EA000B5F8872002F0B2F8002002F0AFF89920B0
:103EB00002F0ACF8002002F0A9F8BB2002F0A6F84E
:103EC000002002F0A3F8992002F0A0F8002002F0F0
:103ED0009DF8772002F09AF8002002F097F844202D
:103EE00002F094F8002002F091F8562002F08EF8CB
:103EF000002002F08BF8232002F088F8002002F066
:103F000085F8332002F082F8002002F07FF8452087
:103F100002F07CF8002002F079F8E82002F082F844
:103F2000002002F073F8002002F070F8992002F0EF
:103F30006DF8002002F06AF8872002F067F8002090
:103F400002F064F8882002F061F8002002F05EF8C8
:103F5000772002F05BF8002002F058F8662002F0AB
:103F600055F8002002F052F8882002F04FF80020A7
:103F700002F04CF8AA2002F049F8002002F046F8BE
:103F8000BB2002F043F8002002F040F8992002F034
:103F90003DF8002002F03AF8662002F037F80020E1
:103FA00002F034F8552002F031F8002002F02EF82B
:103FB000552002F02BF8002002F028F8442002F0EF
:103FC00025F8002002F022F8442002F01FF800201B
:103FD00002F01CF8552002F019F8002002F016F843
:103FE000E92002F01FF8AA2002F010F8002002F0E9
:103FF0000DF8002002F00AF8002002F007F8002077
:1040000002F010F8AA2002F001F8CF2002F00AF81E
:10401000002001F0FBFF002001F0F8FF002001F07C
:10402000F5FF002001F0F2FF002001F0EFFF00207B
:1040300001F0ECFF002001F0E9FF002001F0E6FFB5
:10404000002001F0E3FF002001F0E0FF002001F07C
:10405000DDFF002001F0DAFF002001F0D7FF002093
:1040600001F0D4FF002001F0D1FF002001F0CEFFCD
:10407000002001F0CBFFF02001F0D4FF002001F080
:10408000C5FF502001F0C2FF002001F0BFFF00205B
:1040900001F0BCFF002001F0B9FFF32001F0C2FFE6
:1040A000002001F0B3FFF92001F0BCFF062001F071
:1040B000ADFF102001F0AAFF292001F0A7FF00208A
:1040C00001F0A4FF3A2001F0ADFF552001F09EFF62
:1040D000112001F0A7FF6420FEF7FAFB292001F070
:1040E000A1FF352001F09EFF002001F08FFF51203D
:1040F00001F098FFFF2001F089FF532001F092FFAB
:104100002C2001F083FF552001F08CFF822001F06C
:104110007DFF2C2001F086FF10BD10B555214FF416
:10412000704001F095FFAA214FF2010001F090FFCD
:1041300052214FF2020001F08BFF08214FF20300E1
:1041400001F086FF01214FF2040001F081FF0D21F3
:104150004FF4304001F07CFF0D214BF2010001F0E3
:1041600077FF0D214BF2020001F072FF34214FF472
:10417000364001F06DFF34214BF2016001F068FF21
:1041800034214BF2026001F063FF0D214FF4314006
:1041900001F05EFF0D214BF2011001F059FF0D21DE
:1041A0004BF2021001F054FF34214FF4374001F07C
:1041B0004FFF34214BF2017001F04AFF34214BF2E2
:1041C000027001F045FF00214FF4324001F040FF42
:1041D00000214BF2012001F03BFF00214BF20220B5
:1041E00001F036FF24214FF4384001F031FF242143
:1041F0004BF6010001F02CFF24214BF6020001F0E8
:1042000027FF01214FF43F4001F022FF0F214FF41F
:10421000334001F01DFF0F214BF2013001F018FF78
:104220000F214BF2023001F013FF34214FF43940DB
:1042300001F00EFF34214BF6011001F009FF34218B
:104240004BF6021001F004FF08214FF4354001F055
:10425000FFFE08214BF2015001F0FAFE08214BF25B
:10426000025001F0F5FE03214FF4424001F0F0FE50
:1042700024214FF43A4001F0EBFE24214BF60120BB
:1042800001F0E6FE24214BF6022001F0E1FE0021C0
:104290004FF43C4001F0DCFE78214BF6014001F088
:1042A000D7FE00214BF6024001F0D2FE00214FF470
:1042B0003D4001F0CDFE78214BF6015001F0C8FEE3
:1042C00000214BF6025001F0C3FE00214FF43E40A6
:1042D00001F0BEFE64214BF6016001F0B9FE002141
:1042E0004FF4514001F0B4FE33214DF2011001F0C2
:1042F000AFFE00214DF2021001F0AAFE34214DF272
:10430000031001F0A5FE00214DF2041001F0A0FE03
:104310003A214DF2051001F09BFE00214DF20610EE
:1043200001F096FE4A214DF2071001F091FE0021A6
:104330004DF2081001F08CFE5C214DF2091001F0E5
:1043400087FE00214DF20A1001F082FE81214DF21C
:104350000B1001F07DFE00214DF20C1001F078FEF3
:10436000A6214DF20D1001F073FE00214DF20E104A
:1043700001F06EFEE5214DF20F1001F069FE012102
:104380004DF2101001F064FE13214DF2111001F0F6
:104390005FFE01214DF2121001F05AFE54214DF240
:1043A000131001F055FE01214DF2141001F050FEE2
:1043B00082214DF2151001F04BFE01214DF2161035
:1043C00001F046FECA214DF2171001F041FE022114
:1043D0004DF2181001F03CFE00214DF2191001F0D1
:1043E00037FE02214DF21A1001F032FE01214DF28A
:1043F0001B1001F02DFE02214DF21C1001F028FED1
:1044000034214DF21D1001F023FE02214DF21E1049
:1044100001F01EFE67214DF21F1001F019FE02216E
:104420004DF2201001F014FE84214DF2211001F014
:104430000FFE02214DF2221001F00AFEA4214DF2DE
:10444000231001F005FE02214DF2241001F000FEC0
:10445000B7214DF2251001F0FBFD02214DF226108F
:1044600001F0F6FDCF214DF2271001F0F1FD022100
:104470004DF2281001F0ECFDDE214DF2291001F083
:10448000E7FD02214DF22A1001F0E2FDF2214DF28A
:104490002B1001F0DDFD02214DF22C1001F0D8FDB2
:1044A000FE214DF22D1001F0D3FD03214DF22E100F
:1044B00001F0CEFD10214DF22F1001F0C9FD0321B6
:1044C0004DF2301001F0C4FD33214DF2311001F0F6
:1044D000BFFD03214DF2321001F0BAFD6D214DF206
:1044E000331001F0B5FD00214FF4524001F0B0FD52
:1044F00033214DF2012001F0ABFD00214DF20220ED
:1045000001F0A6FD34214DF2032001F0A1FD0021B0
:104510004DF2042001F09CFD3A214DF2052001F0FE
:1045200097FD00214DF2062001F092FD4A214DF247
:10453000072001F08DFD00214DF2082001F088FDDB
:104540005C214DF2092001F083FD00214DF20A208B
:1045500001F07EFD81214DF20B2001F079FD00215B
:104560004DF20C2001F074FDA6214DF20D2001F05A
:104570006FFD00214DF20E2001F06AFDE5214DF2A4
:104580000F2001F065FD01214DF2102001F060FDCA
:1045900013214DF2112001F05BFD01214DF212209B
:1045A00001F056FD54214DF2132001F051FD01217F
:1045B0004DF2142001F04CFD82214DF2152001F046
:1045C00047FD01214DF2162001F042FDCA214DF2B6
:1045D000172001F03DFD02214DF2182001F038FDB9
:1045E00000214DF2192001F033FD02214DF21A2075
:1045F00001F02EFD01214DF21B2001F029FD0221C9
:104600004DF21C2001F024FD34214DF21D2001F05B
:104610001FFD02214DF21E2001F01AFD67214DF20F
:104620001F2001F015FD02214DF2202001F010FDA8
:1046300084214DF2212001F00BFD02214DF22220B8
:1046400001F006FDA4214DF2232001F001FD02211D
:104650004DF2242001F0FCFCB7214DF2252001F0A1
:10466000F7FC02214DF2262001F0F2FCCF214DF2A1
:10467000272001F0EDFC02214DF2282001F0E8FC9A
:10468000DE214DF2292001F0E3FC02214DF22A2027
:1046900001F0DEFCF2214DF22B2001F0D9FC0221C9
:1046A0004DF22C2001F0D4FCFE214DF22D2001F022
:1046B000CFFC03214DF22E2001F0CAFC10214DF257
:1046C0002F2001F0C5FC03214DF2302001F0C0FC89
:1046D00033214DF2312001F0BBFC03214DF2322099
:1046E00001F0B6FC6D214DF2332001F0B1FC002148
:1046F0004FF4534001F0ACFC33214DF2013001F096
:10470000A7FC00214DF2023001F0A2FC34214DF251
:10471000033001F09DFC00214DF2043001F098FCC3
:104720003A214DF2053001F093FC00214DF20630A4
:1047300001F08EFC4A214DF2073001F089FC002186
:104740004DF2083001F084FC5C214DF2093001F09B
:104750007FFC00214DF20A3001F07AFC81214DF2FC
:104760000B3001F075FC00214DF20C3001F070FCB3
:10477000A6214DF20D3001F06BFC00214DF20E3000
:1047800001F066FCE5214DF20F3001F061FC0121E2
:104790004DF2103001F05CFC13214DF2113001F0AC
:1047A00057FC01214DF2123001F052FC54214DF220
:1047B000133001F04DFC01214DF2143001F048FCA2
:1047C00082214DF2153001F043FC01214DF21630EB
:1047D00001F03EFCCA214DF2173001F039FC0221F4
:1047E0004DF2183001F034FC00214DF2193001F087
:1047F0002FFC02214DF21A3001F02AFC01214DF26A
:104800001B3001F025FC02214DF21C3001F020FC90
:1048100034214DF21D3001F01BFC02214DF21E30FF
:1048200001F016FC67214DF21F3001F011FC02214E
:104830004DF2203001F00CFC84214DF2213001F0CA
:1048400007FC02214DF2223001F002FCA4214DF2BE
:10485000233001F0FDFB02214DF2243001F0F8FB82
:10486000B7214DF2253001F0F3FB02214DF2263045
:1048700001F0EEFBCF214DF2273001F0E9FB0221E0
:104880004DF2283001F0E4FBDE214DF2293001F039
:10489000DFFB02214DF22A3001F0DAFBF2214DF26A
:1048A0002B3001F0D5FB02214DF22C3001F0D0FB72
:1048B000FE214DF22D3001F0CBFB03214DF22E30C5
:1048C00001F0C6FB10214DF22F3001F0C1FB032196
:1048D0004DF2303001F0BCFB33214DF2313001F0AC
:1048E000B7FB03214DF2323001F0B2FB6D214DF2E6
:1048F000333001F0ADFB00214FF4544001F0A8FB30
:1049000033214DF2014001F0A3FB00214DF20240A2
:1049100001F09EFB34214DF2034001F099FB002190
:104920004DF2044001F094FB3A214DF2054001F0B4
:104930008FFB00214DF2064001F08AFB4A214DF227
:10494000074001F085FB00214DF2084001F080FB9B
:104950005C214DF2094001F07BFB00214DF20A4041
:1049600001F076FB81214DF20B4001F071FB00213B
:104970004DF20C4001F06CFBA6214DF20D4001F010
:1049800067FB00214DF20E4001F062FBE5214DF284
:104990000F4001F05DFB01214DF2104001F058FB8A
:1049A00013214DF2114001F053FB01214DF2124051
:1049B00001F04EFB54214DF2134001F049FB01215F
:1049C0004DF2144001F044FB82214DF2154001F0FC
:1049D0003FFB01214DF2164001F03AFBCA214DF296
:1049E000174001F035FB02214DF2184001F030FB79
:1049F00000214DF2194001F02BFB02214DF21A402B
:104A000001F026FB01214DF21B4001F021FB0221A8
:104A10004DF21C4001F01CFB34214DF21D4001F011
:104A200017FB02214DF21E4001F012FB67214DF2EF
:104A30001F4001F00DFB02214DF2204001F008FB68
:104A400084214DF2214001F003FB02214DF222406E
:104A500001F0FEFAA4214DF2234001F0F9FA0221FF
:104A60004DF2244001F0F4FAB7214DF2254001F057
:104A7000EFFA02214DF2264001F0EAFACF214DF281
:104A8000274001F0E5FA02214DF2284001F0E0FA5A
:104A9000DE214DF2294001F0DBFA02214DF22A40DD
:104AA00001F0D6FAF2214DF22B4001F0D1FA0221A9
:104AB0004DF22C4001F0CCFAFE214DF22D4001F0D8
:104AC000C7FA03214DF22E4001F0C2FA10214DF237
:104AD0002F4001F0BDFA03214DF2304001F0B8FA49
:104AE00033214DF2314001F0B3FA03214DF232404F
:104AF00001F0AEFA6D214DF2334001F0A9FA002128
:104B00004FF4554001F0A4FA33214DF2015001F069
:104B10009FFA00214DF2025001F09AFA34214DF231
:104B2000035001F095FA00214DF2045001F090FA83
:104B30003A214DF2055001F08BFA00214DF206505A
:104B400001F086FA4A214DF2075001F081FA002166
:104B50004DF2085001F07CFA5C214DF2095001F051
:104B600077FA00214DF20A5001F072FA81214DF2DC
:104B70000B5001F06DFA00214DF20C5001F068FA73
:104B8000A6214DF20D5001F063FA00214DF20E50B6
:104B900001F05EFAE5214DF20F5001F059FA0121C2
:104BA0004DF2105001F054FA13214DF2115001F062
:104BB0004FFA01214DF2125001F04AFA54214DF200
:104BC000135001F045FA01214DF2145001F040FA62
:104BD00082214DF2155001F03BFA01214DF21650A1
:104BE00001F036FACA214DF2175001F031FA0221D4
:104BF0004DF2185001F02CFA00214DF2195001F03D
:104C000027FA02214DF21A5001F022FA01214DF249
:104C10001B5001F01DFA02214DF21C5001F018FA50
:104C200034214DF21D5001F013FA02214DF21E50B5
:104C300001F00EFA67214DF21F5001F009FA02212E
:104C40004DF2205001F004FA84214DF2215001F080
:104C5000FFF902214DF2225001F0FAF9A4214DF2A0
:104C6000235001F0F5F902214DF2245001F0F0F942
:104C7000B7214DF2255001F0EBF902214DF22650FB
:104C800001F0E6F9CF214DF2275001F0E1F90221C0
:104C90004DF2285001F0DCF9DE214DF2295001F0EF
:104CA000D7F902214DF22A5001F0D2F9F2214DF24A
:104CB0002B5001F0CDF902214DF22C5001F0C8F932
:104CC000FE214DF22D5001F0C3F903214DF22E507B
:104CD00001F0BEF910214DF22F5001F0B9F9032176
:104CE0004DF2305001F0B4F933214DF2315001F062
:104CF000AFF903214DF2325001F0AAF96D214DF2C6
:104D0000335001F0A5F900214FF4564001F0A0F90D
:104D100033214DF2016001F09BF900214DF2026058
:104D200001F096F934214DF2036001F091F9002170
:104D30004DF2046001F08CF93A214DF2056001F06A
:104D400087F900214DF2066001F082F94A214DF207
:104D5000076001F07DF900214DF2086001F078F95B
:104D60005C214DF2096001F073F900214DF20A60F7
:104D700001F06EF981214DF20B6001F069F900211B
:104D80004DF20C6001F064F9A6214DF20D6001F0C6
:104D90005FF900214DF20E6001F05AF9E5214DF264
:104DA0000F6001F055F901214DF2106001F050F94A
:104DB00013214DF2116001F04BF901214DF2126007
:104DC00001F046F954214DF2136001F041F901213F
:104DD0004DF2146001F03CF982214DF2156001F0B2
:104DE00037F901214DF2166001F032F9CA214DF276
:104DF000176001F02DF902214DF2186001F028F939
:104E000000214DF2196001F023F902214DF21A60E0
:104E100001F01EF901214DF21B6001F019F9022188
:104E20004DF21C6001F014F934214DF21D6001F0C7
:104E30000FF902214DF21E6001F00AF967214DF2CF
:104E40001F6001F005F902214DF2206001F000F928
:104E500084214DF2216001F0FBF802214DF2226025
:104E600001F0F6F8A4214DF2236001F0F1F80221DF
:104E70004DF2246001F0ECF8B7214DF2256001F00D
:104E8000E7F802214DF2266001F0E2F8CF214DF261
:104E9000276001F0DDF802214DF2286001F0D8F81A
:104EA000DE214DF2296001F0D3F802214DF22A6093
:104EB00001F0CEF8F2214DF22B6001F0C9F8022189
:104EC0004DF22C6001F0C4F8FE214DF22D6001F08E
:104ED000BFF803214DF22E6001F0BAF810214DF217
:104EE0002F6001F0B5F803214DF2306001F0B0F809
:104EF00033214DF2316001F0ABF803214DF2326005
:104F000001F0A6F86D214DF2336001F0A1F85521B2
:104F10004FF4704001F09CF8AA214FF2010001F01B
:104F200097F852214FF2020001F092F808214FF257
:104F3000030001F08DF800214FF2040001F088F821
:104F4000CC214FF4314001F083F800214BF20110E5
:104F500001F07EF805214FF4364001F079F8702118
:104F60004FF4374001F074F870214BF2017001F0FA
:104F70006FF801214FF4384001F06AF803214BF635
:104F8000010001F065F803214BF6020001F060F822
:104F900003214BF6030001F05BF802214FF43C4083
:104FA00001F056F800214BF6014001F051F80021C4
:104FB0004BF6024001F04CF8D0214FF4494001F08B
:104FC00047F802214CF6011001F042F850214CF64E
:104FD000021001F03DF850214CF6031001F038F8B2
:104FE00050214CF6041001F033F800214FF45450D6
:104FF00001F02EF855214FF4685001F029F84FF4D4
:10500000885001F00FF87820FDF76CFC4FF4245025
:1050100001F008F810BD10B5E22001F003F81D20E2
:1050200000F0F4FF022000F0F1FF042000F0EEFF9A
:105030006420FDF757FCE02000F0F4FF012000F0B1
:10504000E5FF0A20FDF744FCE02000F0EBFF032021
:1050500000F0DCFF0C20FDF73BFC012000F0E2FF3C
:105060000A20FDF735FCE62000F0DCFF2F2000F0E1
:10507000CDFFFF2000F0CAFFFF2000F0C7FFB020E7
:1050800000F0D0FF202000F0C1FF002000F0BEFFA4
:10509000032000F0BBFF40F21F3000F0B7FF0120FB
:1050A00000F0B4FF40F2DF1000F0B0FF002000F08D
:1050B000ADFFB42000F0B6FF042000F0A7FF40F2DF
:1050C0001F4000F0A3FF002000F0A0FF2E2000F002
:1050D0009DFF002000F09AFF002000F097FF0020C5
:1050E00000F094FF002000F091FFB62000F09AFF3E
:1050F000022000F08BFF4FF4037000F087FF0020C8
:1051000000F084FF172000F081FF152000F07EFFE3
:10511000002000F07BFF002000F078FFF02000F07E
:1051200081FF032000F072FF292000F07BFFD020D8
:1051300000F078FF002000F069FFBE2000F072FF51
:10514000052000F063FFFE2000F060FF012000F06A
:105150005DFF002000F05AFF002000F057FF002004
:1051600000F054FFB82000F05DFF032000F04EFF78
:10517000012000F04BFFBA2000F054FF012000F0A6
:1051800045FF10BD10B5112000F04CFF7820FDF751
:105190009FFB362000F046FF002000F037FF3A204A
:1051A00000F040FF052000F031FFB22000F03AFF90
:1051B0000C2000F02BFF0C2000F028FF002000F056
:1051C00025FF332000F022FF332000F01FFFB7201F
:1051D00000F028FF352000F019FFBB2000F022FF6F
:1051E000322000F013FFC02000F01CFF0C2000F064
:1051F0000DFFC22000F016FF012000F007FFC320C2
:1052000000F010FF102000F001FFC42000F00AFFA2
:10521000202000F0FBFEC62000F004FF0F2000F06D
:10522000F5FED02000F0FEFEA42000F0EFFEA1204D
:1052300000F0ECFEE02000F0F5FED02000F0E6FEED
:10524000002000F0E3FE022000F0E0FE072000F066
:10525000DDFE0A2000F0DAFE282000F0D7FE322022
:1052600000F0D4FE442000F0D1FE422000F0CEFE3B
:10527000062000F0CBFE0E2000F0C8FE122000F049
:10528000C5FE142000F0C2FE172000F0BFFEE12092
:1052900000F0C8FED02000F0B9FE002000F0B6FEFD
:1052A000022000F0B3FE072000F0B0FE0A2000F05C
:1052B000ADFE282000F0AAFE312000F0A7FE542009
:1052C00000F0A4FE472000F0A1FE0E2000F09EFE9C
:1052D0001C2000F09BFE172000F098FE1B2000F021
:1052E00095FE1E2000F092FE2A2000F09BFE00207A
:1052F00000F08CFE002000F089FE002000F086FE09
:10530000EF2000F083FE2B2000F08CFE002000F048
:105310007DFE002000F07AFE012000F077FE3F20A5
:1053200000F074FE292000F07DFE10BD10B51120A4
:1053300000F078FE7820FDF7CBFA362000F072FE00
:10534000482000F063FE3A2000F06CFE552000F08B
:105350005DFEF02000F066FEC32000F057FEF02056
:1053600000F060FE962000F051FEB42000F05AFEDE
:10537000012000F04BFEB62000F054FE0A2000F0A1
:1053800045FEA22000F042FEB72000F04BFEC620F2
:1053900000F03CFEB92000F045FE022000F036FE91
:1053A000E02000F033FEC02000F03CFE802000F042
:1053B0002DFE162000F02AFEC12000F033FE192039
:1053C00000F024FEC22000F02DFEA72000F01EFEFB
:1053D000C52000F027FE162000F018FEE82000F09F
:1053E00021FE402000F012FE8A2000F00FFE002077
:1053F00000F00CFE002000F009FE292000F006FE5F
:10540000192000F003FEA52000F000FE332000F07C
:10541000FDFDE02000F006FEF02000F0F7FD072083
:1054200000F0F4FD0D2000F0F1FD042000F0EEFD91
:10543000052000F0EBFD142000F0E8FD362000F020
:10544000E5FD542000F0E2FD4C2000F0DFFD3820A7
:1054500000F0DCFD132000F0D9FD142000F0D6FD93
:105460002E2000F0D3FD342000F0D0FDE12000F02C
:10547000D9FDF02000F0CAFD102000F0C7FD142077
:1054800000F0C4FD0E2000F0C1FD0C2000F0BEFDB8
:10549000082000F0BBFD352000F0B8FD442000F0EE
:1054A000B5FD4C2000F0B2FD262000F0AFFD10202D
:1054B00000F0ACFD122000F0A9FD2C2000F0A6FDAC
:1054C000322000F0A3FDF02000F0ACFD3C2000F005
:1054D0009DFDF02000F0A6FD692000F097FD7820EA
:1054E000FDF7F6F9212000F09DFD292000F09AFD3E
:1054F00010BD00002DE9F04F05460E4617469846B0
:10550000DDF824A04FF0000B781B401C1FFA80FB35
:10551000344613E02146284600F086FB00F08EFD5D
:105520004FF0000906E00749A1F800A009F10100C9
:105530001FFA80F9D945F6DB601C84B24445E9DDE9
:10554000BDE8F08F0008006C00B593B000BF00BF4D
:10555000F948806940F48070F7498861084680699D
:1055600000F48070009000BF00BF00BF00BF00BF0C
:105570000846806940F0200088610846806900F094
:105580002000009000BF00BF00BF00BF00BF084662
:10559000806940F0200088610846806900F02000A2
:1055A000009000BF00BF00BF00BF00BF0846806979
:1055B00040F4807088610846806900F48070009033
:1055C00000BF00BF00BF00BF00BF0846806940F0B9
:1055D000080088610846806900F00800009000BF5C
:1055E00000BF00BF88140F9002201090012011907E
:1055F000032012900FA9D148FBF7FAFB20200F904F
:105600000FA9CF48FBF7F4FB10200F900FA9CC484F
:10561000FBF7EEFB01200F900FA9C848FBF7E8FB52
:1056200001200F9010900FA9C648FBF7E1FB4FF047
:105630002040C5490860C5484860062088600021B0
:10564000C148C1601021416100218161C161416295
:105650004FF4805181620021C1624FF480410163A7
:105660000021416381630020089009900F200A9077
:1056700000200E90019002900120039000200790DE
:1056800001AA08A9B048FCF783F93220FDF720F9F8
:10569000D32000F0C7FC00F09DF9AD49888000F0F0
:1056A00099F9AB49888000F095F9A94988800846A6
:1056B00080884FF6FF7101EA0020A549888000F03C
:1056C00089F9A34989880843A149888008468088C8
:1056D00049F2413188427CD0042000F0A3FC00F064
:1056E00079F99B49888000F075F99949888000F024
:1056F00071F997498880084680884FF6FF7101EA62
:1057000000209349888000F065F991498988084311
:105710008F4988800846808848F25251884203D1D8
:1057200047F289708A4988808948808847F2897160
:105730008842D0D0D42000F075FC00F04BF98449A9
:10574000888000F047F98249888000F043F9804959
:105750008880084680884FF6FF7101EA00207C4966
:10576000888000F037F97A49898808437849888029
:105770000846808845F210318842ACD0D32000F032
:1057800051FC00F027F97249888000F023F9704934
:10579000888000F01FF96E498880084680884FF69F
:1057A000FF7101EA00206A49888000F013F9684916
:1057B00089880843664988800846808847F2967140
:1057C000884288D055214FF4704000F041FCAA2156
:1057D00000E07EE04FF2010000F03AFC52214FF26F
:1057E000020000F035FC08214FF2030000F030FC0D
:1057F00001214FF2040000F02BFC4FF4454000F073
:1058000011FC00F0E7F852498880084680884FF67E
:10581000FF7101EA00204E4988804CF2015000F0EF
:1058200001FC00F0D7F84A49898808434849888034
:105830000520FDF74DF84648808845F21051884212
:1058400047D0D32000F0EEFB00F0C4F84049888038
:1058500000F0C0F83E49888000F0BCF83C498880E0
:10586000084680884FF6FF7101EA00203849888099
:1058700000F0B0F8364989880843354988800846E1
:10588000808849F60601884223D0A12000F0CAFB97
:1058900000F0A0F82E49888000F09CF82C49888000
:1058A000084680884FF6FF7101EA00202849888069
:1058B00000F090F8264989880843254988800846E1
:1058C000808845F26171884203D141F66310204916
:1058D00088801F4881881FA0FCF7F6FC1C48808840
:1058E00047F28971884202D1FFF74CFC4CE018481E
:1058F000808849F24131884202D1FDF7DFF943E067
:105900001348808845F21031884202D1FDF78CFCA3
:105910003AE00F48808847F29671884202D1FFF73B
:1059200005FD31E00A48808845F21051884217D1C0
:10593000FEF7F3FB28E000000010024000200140C9
:1059400000140140000C014064020020040100A08A
:10595000AC0200204C43442049443A25780D0A000B
:105960001148808849F60601884202D1FDF7BCFA49
:105970000AE00D48808841F66311884204D1FFF7A0
:105980004AFB642000F018FB0020FDF7D1F800BFAF
:10599000012211460548FBF7DDFB00BF4FF6FF7003
:1059A000FDF7ACF813B000BDAC020020000C0140C4
:1059B00000BF011EA0F10100FBD1704710B50246E7
:1059C000012000E050430B1EA1F10104E1B2F9D126
:1059D00010BD000008B50220FFF7EAFF024800886A
:1059E0000090BDF8000008BD0008006CF0B5054649
:1059F000002400278B488079012805D189488088B8
:105A000041F66311884208D186488079F0B985480B
:105A1000808841F66311884218D1082D15D2DFE83D
:105A200005F00406080A0C0E101206250DE00725E5
:105A30000BE0042509E0052507E0012505E0002528
:105A400003E0032501E0022500BF00BF082D1CD2A2
:105A5000DFE805F00406090C0F12151800BF14E06A
:105A600044F0800411E044F040040EE044F0C0042F
:105A70000BE044F0200408E044F0600405E044F04A
:105A8000A00402E044F0E00400BF00BF36276548F0
:105A9000808845F21051884200D13F0261488088D9
:105AA00049F2413188420BD05E48808847F28971C3
:105AB000884205D05B48808847F29671884201D1C0
:105AC00044F008042146384600F0C2FA5548808860
:105AD00041F6631188421DD004F0200068B151489E
