:020000040800F2
:1000000010070020450100089B18000893180008FD
:100010009718000891040008151C00080000000053
:10002000000000000000000000000000C9180008E7
:1000300095040008000000009D180008CB18000877
:100040005F0100085F0100085F0100085F01000810
:100050005F0100085F0100085F0100085F01000800
:100060005F0100085F0100085F0100085F010008F0
:100070005F0100085F0100085F0100085F010008E0
:100080005F0100085F0100085F0100085F010008D0
:100090005F0100085F0100085F0100085F010008C0
:1000A0005F0100085F0100085F0100085F010008B0
:1000B0005F0100085F010008D51800085F01000813
:1000C0005F0100085F0100085F0100085F01000890
:1000D0005F010008051C00085F0100085F010008BF
:1000E0005F0100085F0100085F0100085F01000870
:1000F0005F0100085F0100085F0100085F01000860
:100100005F0100085F0100085F0100085F0100084F
:100110005F0100085F0100085F0100085F0100083F
:100120005F0100085F0100085F0100085F0100082F
:10013000DFF80CD000F060F900480047455C00088B
:10014000100700200648804706480047FEE7FEE704
:10015000FEE7FEE7FEE7FEE7FEE7FEE7FEE7FEE777
:10016000D318000831010008D2B201E000F8012BD9
:10017000491EFBD270470022F6E710B513460A4627
:1001800004461946FFF7F0FF204610BD2DE9FE4F4B
:1001900081EA030404F0004421F0004100944FF090
:1001A000000B23F0004350EA01045ED052EA03043E
:1001B0005BD0C3F30A54C1F30A552C44A4F2F334C0
:1001C0000194A0FB0254C1F3130141F48011C3F365
:1001D000130343F4801301FB024400FB034E840A23
:1001E000970A44EA815447EA8357A4FB07680295BB
:1001F0008D0A05FB07854FEA932C04FB0C54270559
:10020000029D4FEA065847EA1637B5EB08056EEB34
:10021000070C870E920E47EA811742EA8312A7FB6A
:100220000201B6EB0B0164EB00042B0D43EA0C3327
:100230005E1844EB1C50DA465146E7FB0201C5F359
:1002400013044FEA0B3343EA14534FEA0432019C80
:1002500043EA0603A4F10C040294009CCDE900B427
:1002600000F07CF803B0BDE8F08F00200146F9E70C
:100270000EB540F2334102910021CDE900110A464A
:100280000B4600F06BF803B000BDC1F30A5210B585
:10029000C1F3130140F2FF3341F480119A4201DAB5
:1002A000002010BD40F233439A42A2F2334203DCF5
:1002B000524200F034F810BD904010BD2DE9F05FBF
:1002C0000546002092469B468846064681464024C5
:1002D0001BE0284641464746224600F020F8534698
:1002E0005A46C01A914110D311461846224600F0D2
:1002F00095F82D1A67EB01084F4622460120002190
:1003000000F08CF817EB00094E41201EA4F1010407
:10031000DFDC484631462A464346BDE8F09F202AA6
:1003200004DB203A21FA02F00021704721FA02F39F
:10033000D040C2F12002914008431946704710B5E1
:10034000141E73F1000408DA401C41F100019218F8
:100350005B411A4301D120F0010010BD2DE9F04DA1
:1003600092469B4611B1B1FA81F202E0B0FA80F2F6
:100370002032904600F052F804460F4640EA0A0048
:1003800041EA0B0153465A46084313D0114653EA3B
:10039000010019D0C8F140025046FFF7C0FF0546E2
:1003A0000E4650465946424600F038F8084305D0FC
:1003B000012004E020463946BDE8F08D00200543C9
:1003C00046EAE0762C4337430A986305E40AA0EB3B
:1003D00008000022FD0A44EA47540A3002D50020F2
:1003E0000146E9E7010510196941DDE908450019F1
:1003F0006941BDE8F04DA2E7064C074D06E0E06814
:1004000040F0010394E8070098471034AC42F6D35B
:10041000FFF792FE3CA200085CA20008202A04DB41
:10042000203A00FA02F1002070479140C2F1200307
:1004300020FA03F319439040704770B58C1810F8F8
:10044000015B15F0070301D110F8013B2A1106D119
:1004500010F8012B03E010F8016B01F8016B5B1E33
:10046000F9D12B0705D40023521E0DD401F8013B0E
:10047000FAE710F8013BCB1A921C03E013F8015B7A
:1004800001F8015B521EF9D5A142D8D3002070BDFE
:1004900000BFFEE77047000070B50446B3F5804F1B
:1004A00013D1D1E9000540EA05108D6840EA052026
:1004B0008D6928438D8940EA054054F82250064E44
:1004C0003540284344F8220003E06FF0704044F8C0
:1004D0002200002070BD00000000F0CF70B5024681
:1004E000086852F8200020F001000E6842F826004B
:1004F0008868082801D1402300E000234868184399
:100500008E683043CE6830430E6930434E693043C5
:10051000CE6930430E6A30434E6A30438E6A3043B0
:10052000CE6A30430E6B40EA060488690443486B88
:100530000443074D45F4806545F4E025086852F80A
:100540002000A84320430E6842F82600002070BD1A
:100550007FFB080010B50346D1E9000440EA04100F
:100560008C6840EA04208C8940EA0444088A401ED2
:1005700044EA0054087D801E44EA00608C692043F0
:10058000541C53F8244004F040442043541C43F8C6
:100590002400002010BD000070B50446002594F82A
:1005A0002100022803D00420A0630125C1E02068B7
:1005B000006820F00E00216808602068006820F0C4
:1005C0000100216808605C492068884252D95A4974
:1005D00078392068884201D1012047E056496439C2
:1005E0002068884201D1102040E0534950392068EA
:1005F000884201D1801539E04F493C392068884252
:1006000001D1801432E04C4928392068884202D157
:100610004FF480302AE0484914392068884202D1DA
:100620004FF4801022E044492068884201D1400400
:100630001CE042492068884201D1012016E03F4970
:1006400014312068884201D110200FE03B49283145
:100650002068884201D1801508E038493C31206883
:10066000884201D1801401E04FF480303349091FE2
:10067000086051E0304978392068884201D1012072
:1006800047E02D4964392068884201D1102040E0BC
:10069000294950392068884201D1801539E026491E
:1006A0003C392068884201D1801432E0224928393F
:1006B0002068884202D14FF480302AE01E49143964
:1006C0002068884202D14FF4801022E01A49206845
:1006D000884201D140041CE018492068884201D1B9
:1006E000012016E0154914312068884201D11020FC
:1006F0000FE0124928312068884201D1801508E0B6
:100700000E493C312068884201D1801401E04FF449
:100710008030094980394860012084F8210000BFF9
:10072000002084F8200000BF606B10B12046616B90
:100730008847284670BD000080000240080402403F
:100740002DE9F847024600239C467BE14FF0010863
:1007500008FA03F4D1F8008008EA0400A0427DD131
:10076000DFF8F4A2D1F80480A8EB0A09D0453AD00A
:1007700014DCB8F1030F50D009DCB8F1000F31D010
:10078000B8F1010F1CD0B8F1020F49D120E0B8F147
:10079000110F18D0B8F1120F42D11EE0B9F5881F21
:1007A00025D006DCB9F5803F20D0B9F5801F37D1C0
:1007B0001AE0B9F5001F18D0B9F5041F30D117E0C1
:1007C000D1F80CC02DE0D1F80C8008F1040C28E021
:1007D000D1F80C8008F1080C23E0D1F80C8008F166
:1007E0000C0C1EE000BF00BF00BF00BF00BF00BF79
:1007F000D1F80880B8F1000F02D14FF0040C0BE0E3
:10080000D1F80880B8F1010F03D14FF0080C146142
:1008100002E04FF0080C546103E04FF0000C00E0E0
:1008200000BF00BFFF2801D8904601E002F1040894
:100830004646FF2802D84FEA830803E0A3F10808E0
:100840004FEA88084746D6F800804FF00F0909FAAA
:1008500007F928EA09080CFA07F900E07AE048EA03
:100860000908C6F80080D1F8048008F08058B8F173
:10087000805F6FD100BFDFF8E481D8F8188048F0BE
:100880000108DFF8D891C9F81880C846D8F8188050
:1008900008F00108CDF8008000BF00BF4FEAB9386A
:1008A0004FEA930958F829504FEA83784FEA1879AC
:1008B0004FF00F0808FA09F825EA0805DFF8A081CB
:1008C000424502D14FF0000824E0DFF8988142450C
:1008D00002D14FF001081DE0DFF88C81424502D1C2
:1008E0004FF0020816E0DFF88481424502D14FF054
:1008F00003080FE0DFF87881424502D14FF0040889
:1009000008E0DFF87081424502D14FF0050801E0B0
:100910004FF006084FEA83794FEA197908FA09F887
:1009200048EA0505DFF850814FEA930948F8295055
:10093000D1F8048008F48038B8F5803F0BD1DFF897
:100940003C81D8F8008048EA0008DFF83091C9F807
:1009500000800AE075E0DFF82481D8F8008028EAFA
:100960000008DFF81891C9F80080D1F8048008F475
:100970000038B8F5003F0ED1DFF8008108F1040817
:10098000D8F8008048EA0008DFF8F09009F104097F
:10099000C9F800800DE0DFF8E48008F10408D8F819
:1009A000008028EA0008DFF8D49009F10409C9F8AA
:1009B0000080D1F8048008F48018B8F5801F0ED1AB
:1009C000DFF8B88008F10808D8F8008048EA000885
:1009D000DFF8A89009F10809C9F800800DE0DFF8F8
:1009E0009C8008F10808D8F8008028EA0008DFF8A1
:1009F0008C9009F10809C9F80080D1F8048008F446
:100A00000018B8F5001F0ED1DFF8708008F10C084F
:100A1000D8F8008048EA0008DFF8609009F10C0976
:100A2000C9F800800DE0DFF8548008F10C08D8F810
:100A3000008028EA0008DFF8449009F10C09C9F8A1
:100A400000805B1CD1F8008028FA03F8B8F1000F91
:100A50007FF47CAEBDE8F887000011100010024062
:100A600000080140000C014000100140001401404A
:100A700000180140001C0140080001400004014032
:100A8000024693680B400BB1012000E00020704744
:100A900010B5C26821EA020302EA010443EA0443F2
:100AA000036110BD0AB1016101E00B0403617047ED
:100AB00001480068704700001000002003480068EB
:100AC0000349097808440149086070471000002074
:100AD0001800002010B50848006840F010000649D2
:100AE0000860052000F080F80F2000F007F800F003
:100AF0002BF8002010BD00000020024070B5044615
:100B00000E4800784FF47A71B1FBF0F00C49096897
:100B1000B1FBF0F5284600F05FFC08B1012070BD84
:100B2000102C07D200222146501E00F01EF8054866
:100B3000046001E00120F2E70020F0E71800002047
:100B400000000020140000207047014608460028DD
:100B500009DB00F01F0301229A4043099B0003F1C7
:100B6000E023C3F8002100BF70472DE9F05F804605
:100B70000D461646002701F05FF8074639462A461B
:100B8000334601F00700C0F1070ABAF1040F02D999
:100B90004FF0040A01E0C0F1070AD14600F1040A4F
:100BA000BAF1070F02D24FF0000A01E0A0F1030AE8
:100BB000D4464FF0010A0AFA09FAAAF1010A0AEA30
:100BC000020A0AFA0CFA4FF0010B0BFA0CFBABF11C
:100BD000010B0BEA030B4AEA0B042146404601F0E5
:100BE00033F8BDE8F09F000000BF00F00702064B9D
:100BF00019684FF6FF031940044B0B4343EA0221E7
:100C0000014B196000BF70470CED00E00000FA05D1
:100C100070B504460D460CB9012070BD5A480068F5
:100C200000F00700A8420ED25748006820F00700E5
:100C30002843554908600846006800F00700A842AC
:100C400001D00120E9E7207800F0020002281DD140
:100C5000207800F00400042805D14C48406840F496
:100C6000E0604A494860207800F00800082805D173
:100C70004648406840F460504449486043484068F2
:100C800020F0F000A168084340494860207800F057
:100C9000010078B36068012806D13C48006800F480
:100CA000003090B90120B8E76068022806D13748C3
:100CB000006800F0007040B90120AEE733480068DA
:100CC00000F0020008B90120A7E73048406820F092
:100CD0000300616808432D494860FFF7E9FE0646B6
:100CE00009E0FFF7E5FE801B41F28831884202D916
:100CF000032092E707E02548406800F00C00616897
:100D0000B0EB810FEDD12048006800F00700A84249
:100D10000ED91D48006820F0070028431A490860D2
:100D20000846006800F00700A84201D0012074E7DF
:100D3000207800F00400042807D11448406820F40B
:100D4000E060E168084311494860207800F008003D
:100D5000082808D10D48406820F46050216940EA15
:100D6000C1000A49486000F03FF808494968C1F3EA
:100D70000311074A515CC8400649086006480068EC
:100D8000FFF7BCFE002048E70020024000100240B0
:100D90008B7100080000002014000020014800684A
:100DA000704700000000002000B5FFF7F7FF04497E
:100DB0004968C1F30221034A515CC84000BD0000EC
:100DC000001002409B71000800B5FFF7E7FF0449DF
:100DD0004968C1F3C221034A515CC84000BD00000C
:100DE000001002409B710008F0B585B00FF26C0C4A
:100DF0009CE8E01001A8A0E8E0101CA52D68009573
:100E000000210022002300240020194D696801F010
:100E10000C05F5B1042D02D0082D19D101E01548BB
:100E200019E001ADC1F38346AC5D01F4803555B1E5
:100E30000F4D6D68C5F340451DF805200D4D654308
:100E4000B5FBF2F302E00C4D04FB05F3184602E09B
:100E500000BF084800BF00BF05B0F0BD0203040595
:100E6000060708090A0B0C0D0E0F101001020000F6
:100E70000010024000127A0000093D00F8B5044657
:100E80000CB90120F8BD207800F00100002878D0CE
:100E9000F848406800F00C0004280CD0F548406881
:100EA00000F00C00082811D1F248406800F48030AE
:100EB000B0F5803F0AD1EF48006800F40030002808
:100EC0005FD0606800285CD10120DBE700BF60686C
:100ED000B0F5803F06D1E748006840F48030E5492E
:100EE000086028E0606858B9E248006820F4803063
:100EF000E04908600846006820F4802008601AE095
:100F00006068B0F5A02F0BD1DA48006840F480206B
:100F1000D84908600846006840F4803008600AE05C
:100F2000D448006820F48030D24908600846006840
:100F300020F48020086000BF606888B1FFF7B8FD2A
:100F4000054606E0FFF7B4FD401B642801D90320E5
:100F500098E7C848006800F400300028F2D010E09C
:100F6000FFF7A6FD054606E0FFF7A2FD401B64283B
:100F700001D9032086E7BF48006800F4003000284C
:100F8000F2D1207800F00200022857D1B948406819
:100F900000F00C0050B1B748406800F00C00082881
:100FA00018D1B448406800F4803098B9B14800685E
:100FB00000F0020020B12069012801D0012061E782
:100FC000AC48006820F0F800616940EAC100A94916
:100FD000086033E02069E8B10120A7490860FFF705
:100FE00067FD054606E0FFF763FD401B022801D9B7
:100FF000032047E79F48006800F002000028F2D075
:101000009C48006820F0F800616940EAC1009949F5
:10101000086013E0002098490860FFF749FD054685
:1010200006E0FFF745FD401B022801D9032029E710
:101030009048006800F002000028F2D1207800F00B
:10104000080008282DD1A069B8B101208B4908609B
:10105000FFF72EFD054606E0FFF72AFD401B02289C
:1010600001D903200EE78348406A00F002000028FF
:10107000F2D0012000F014FC13E000207F4908604A
:10108000FFF716FD054606E0FFF712FD401B02289C
:1010900001D90320F6E67748406A00F002000028F4
:1010A000F2D1207800F00400042873D100277148A1
:1010B000C06900F0805070B900BF6E48C06940F050
:1010C00080506C49C8610846C06900F080500090AB
:1010D00000BF00BF01276A48006800F48070B0B903
:1010E0006748006840F4807065490860FFF7E0FCDD
:1010F000054606E0FFF7DCFC401B642801D903200D
:10110000C0E65F48006800F480700028F2D000BF9D
:10111000E068012806D15748006A40F001005549AF
:10112000086227E0E06858B95248006A20F00100E0
:10113000504908620846006A20F00400086219E07D
:10114000E06805280BD14B48006A40F0040049498B
:1011500008620846006A40F0010008620AE045485B
:10116000006A20F00100434908620846006A20F046
:101170000400086200BFE068A0B1FFF799FC0546D3
:1011800009E0FFF795FC401B41F28831884202D903
:10119000032077E622E03748006A00F002000028CA
:1011A000EFD012E0FFF784FC054608E0FFF780FC73
:1011B000401B41F28831884201D9032062E62D4864
:1011C000006A00F002000028F0D1012F05D1294863
:1011D000C06920F080502749C86100BFE069C8B3EA
:1011E0002448406800F00C00082860D0E06902281C
:1011F00048D1002020490866FFF75AFC054606E062
:10120000FFF756FC401B022801D903203AE6194893
:10121000006800F000700028F2D1206AB0F5803F2D
:1012200007D11448406820F40030A16808431149F0
:101230004860D4E9080108430E49496821F4741153
:1012400008430C49486001200B490866FFF730FC51
:10125000054607E03DE0FFF72BFC401B022801D9C3
:1012600003200FE60348006800F000700028F2D069
:101270002FE0000000100240000042428004424281
:1012800000700040002014490866FFF711FC054675
:1012900006E0FFF70DFC401B022801D90320F1E511
:1012A0000E48006800F000700028F2D111E0E069FB
:1012B000012800D1E6E50948466806F48031206A35
:1012C000814204D106F47011606A814201D001208C
:1012D000D8E50020D6E500000000424200100240A0
:1012E00070B504460E4615461CB1A069B0F5807F66
:1012F00001D1012070BD94F8410028B9002084F884
:101300004000204600F020F804F108012068FFF7B3
:10131000E5F83146A2682068FFF71CF92946236BDF
:10132000D4E90102FFF7B8F8A168206850F821005D
:1013300040F00100A268216841F82200012084F8F1
:1013400041000020D6E7000010B586B0044600BF7B
:101350001E48406940F480701C4948610846406955
:1013600000F48070019000BF00BF00BF0846806994
:1013700040F0200088610846806900F0200001905C
:1013800000BF00BF00BF0846806940F04000886190
:101390000846806900F04000019000BF00BF4CF299
:1013A0000370029002200390012004900320059016
:1013B00002A90748FFF7C4F94FF68070029002A90E
:1013C0000448FFF7BDF906B010BD00000010024050
:1013D000001401400018014070B504462546681EFF
:1013E000B0F1807F01D301200FE0681E4FF0E021B3
:1013F00048610F214FF0FF3000F026FC00204FF035
:10140000E021886107200861002070BD10B5044606
:101410000CB9012010BD94F83D0028B9002084F8D3
:101420003C00204600F025F8022084F83D00211DF4
:10143000206800F071FA012084F8460000BF84F8AB
:101440003E0001213F20015540200155412001551A
:1014500000BF00BF012084F8420043200155442012
:1014600001554520015500BF012084F83D000020B2
:10147000D0E77047014691F83D00012801D00120D6
:101480007047022081F83D000868C06840F0010004
:101490000B68D860164B0868984213D0154B086843
:1014A00098420FD00868B0F1804F0BD0124B0868FB
:1014B000984207D0114B0868984203D0104B086837
:1014C00098420CD10868806800F00702062A0CD008
:1014D0000868006840F001000B68186005E00868C3
:1014E000006840F001000B6818600020C8E70000A9
:1014F000002C01400034014000040040000800407E
:10150000000C0040704700002DE9F04704462068B9
:1015100005682068C668206847694FF00008C14622
:1015200005F00F08B8F1000F0AD105F0200038B11E
:1015300006F0200020B1204600F066FABDE8F087F2
:10154000B8F1000F71D007F0010018B906F49070DF
:1015500000286AD005F0010030B106F4807018B19F
:10156000E06B40F00100E06305F0040030B107F0EB
:10157000010018B1E06B40F00200E06305F00200EA
:1015800030B107F0010018B1E06B40F00400E063F7
:1015900005F0080048B106F0200010B907F001007E
:1015A00018B1E06B40F00800E063E06B68B305F051
:1015B000200028B106F0200010B1204600F024FAE7
:1015C00020684069C0F38019E06B00F0080010B992
:1015D000B9F1000F22D0204600F0F6F920684069EA
:1015E00000F04000B0B12068406920F04000216860
:1015F0004861606B50B11848616B4863606BFEF7DF
:10160000CBFF10B1606B416B88470CE02046FFF7C1
:1016100079FF08E02046FFF775FF04E02046FFF75A
:1016200071FF0020E06389E7FFE705F0800030B13B
:1016300006F0800018B1204600F0B4FA7EE705F00D
:10164000400030B106F0400018B1204600F0CCF95F
:1016500074E700BF72E70000B519000810B5044632
:101660000CB9012010BDA06900B100E000BF94F8E2
:10167000390028B9002084F83800204600F028F806
:10168000242084F839002068C06820F400502168C4
:10169000C860204600F008FA2068006920F49040F5
:1016A000216808612068406920F02A0021684861AB
:1016B0002068C06840F400502168C8600020E063E2
:1016C000202084F8390084F83A000020CAE700009E
:1016D00010B586B004462849206888424AD100BF28
:1016E00000BF2648806940F004002449886108460C
:1016F000806900F00400019000BF00BF00BF00BF80
:1017000000BF0846806940F004008861084680698F
:1017100000F00400019000BF00BF00BF00BF00BF89
:101720000846806940F4804088610846806900F47A
:101730008040019000BF00BF00BF4815029002200A
:101740000390012004900320059002A90C48FEF7A5
:10175000F7FF4FF4806002900020039002A9084830
:10176000FEF7EEFF2520FFF7F0F9032211462520B2
:10177000FFF7FBF906B010BD003801400010024031
:101780000008014010B5034693F83A0020282FD1F5
:1017900001B10AB9012010BD00BF93F8380001283B
:1017A00001D10220F7E7012083F8380000BF9962D9
:1017B0009A85DA850020D863222083F83A0000BF9A
:1017C000002083F8380000BF1868C06840F48070BB
:1017D0001C68E0601868406940F001001C686061A6
:1017E0001868C06840F020001C68E0600020D2E764
:1017F0000220D0E710B504462049206888423BD13A
:101800001F48008800F4004088BB1D48008800F491
:10181000804070B11B4800780A2803D00020184986
:10182000088024E01648008840F4004014490880ED
:101830001DE0144800780D2806D11148008840F4B6
:1018400080400F49088012E00E4800780C49098852
:10185000C1F30D010C4A505409480088401C084946
:10186000088008460088C72801DD00200880012282
:1018700004490648FFF786FF10BD0000003801400C
:101880000C0000200E000020640100202C0200202B
:10189000704700BFFEE700BFFEE7704770470000DB
:1018A00008B508490968C9084FF47A72B1FBF2F12A
:1018B0004143009100BF00BF00994A1E00920029D9
:1018C000F9D108BD00000020704710B5FFF7F6F809
:1018D00010BD704710B50E480068C06800F00100E8
:1018E00078B10C49086980470020094909684862B5
:1018F00000BF642006490968C86264210448C160C9
:1019000000BF6FF0010002490968086110BD0000C6
:10191000C40200207000002010B50268204B9842DD
:101920000ED0204B98420BD0B0F1804F08D01E4B08
:10193000984205D01D4B984202D01D4B984203D1CE
:1019400022F070024B681A43154B98420ED0154B8B
:1019500098420BD0B0F1804F08D0134B984205D07D
:10196000124B984202D0124B984203D122F440729B
:10197000CB681A4322F080034C6943EA04020260F8
:101980008B68C3620B688362054B984202D0054B9B
:10199000984201D10B6903630123436110BD00002C
:1019A000002C0140003401400004004000080040C9
:1019B000000C004070B505466C6A0020E085E084AC
:1019C0002046FFF79FFD70BD0168C96821F4907142
:1019D0000268D1600168496921F001010268516122
:1019E000202180F83A10704710B504462068C0687E
:1019F00020F040002168C860202084F8390020468B
:101A0000FFF746FF002010BD70B5044694F83A0079
:101A1000222847D1A068B0F5805F0CD1206950B969
:101A20000025A66A20684068C0F308003080A06ADC
:101A3000801CA06215E0A56A0026A068B0F5805F52
:101A400003D0A06828B9206918B9206840682870B8
:101A500004E02068406800F07F002870A06A401C05
:101A6000A062E08D401E80B2E085C8B92068C068E1
:101A700020F020002168C8602068C06820F48070D1
:101A80002168C8602068406920F001002168486131
:101A9000202084F83A002046FFF7ACFE002070BDFD
:101AA0000020FCE70220FAE770B5044621680969C6
:101AB00021F44051E2681143226811612269A16852
:101AC0001143626941EA02052168C96841F20C626A
:101AD000914329432268D1602168496921F440710A
:101AE000A2691143226851612D4A2168914202D1B5
:101AF000FFF76AF901E0FFF757F900EBC00101EBCE
:101B0000001162689200B1FBF2F100EBC00202EB3F
:101B1000001263689B00B2FBF3F26423B2FBF3F2A2
:101B200002EBC20303EB0212A1EB8201322202EBB1
:101B300001116422B1FBF2F101F0F00100EBC002EF
:101B400002EB001263689B00B2FBF3F26423B2FB6A
:101B5000F3F201EB021200EBC00101EB001163682C
:101B60009B00B1FBF3F100EBC00303EB00136668CD
:101B7000B600B3FBF6F36426B3FBF6F303EBC30640
:101B800006EB0313A1EB8301322303EB0111642362
:101B9000B1FBF3F101F00F0111442268916070BDB7
:101BA00000380140014691F83900212828D1886881
:101BB000B0F5805F0BD1086948B90A6A1088C0F394
:101BC00008000B685860086A801C086205E00B6A10
:101BD000581C086218780B685860C88C401E80B288
:101BE000C88458B90868C06820F080000B68D860C5
:101BF0000868C06840F040000B68D860002070475B
:101C00000220FCE710B50248FFF77EFC10BD000083
:101C10002C02002000BFFEE70FB4054B10B503A94E
:101C2000044A029800F034F810BC5DF814FB000080
:101C3000792200080800002002480068C0F3022052
:101C4000704700000CED00E010B5002804DB0A0727
:101C5000130E054A135406E00A07140E034A00F057
:101C60000F031B1FD45410BD00E400E018ED00E08A
:101C700002E008C8121F08C1002AFAD17047704755
:101C8000002001E001C1121F002AFBD170470000B3
:101C90002DE9FF4F8DB00F460546002606E02528AA
:101CA0000BD0DDE90F1290476D1C761C28780028B8
:101CB000F5D111B03046BDE8F08F0024A246A14610
:101CC0000122EC4900E0044315F8013F203B02FAF1
:101CD00003F00842F7D128782A2810D06FF02F029D
:101CE0002878A0F13001092914D80AEB8A0102EB07
:101CF000410144F0020400EB010A6D1CF0E701CF42
:101D00005FEA000A03D544F40054CAF1000A44F023
:101D100002046D1C28782E2817D115F8010F44F005
:101D200004042A280ED06FF02F022878A0F1300189
:101D300009290AD809EB890102EB410100EB0109ED
:101D40006D1CF2E757F8049B6D1C28786C280FD0A7
:101D500006DC4C2817D068280DD06A2814D104E07E
:101D6000742810D07A280FD10DE044F400140AE052
:101D700044F4801401E044F440146978814202D1B3
:101D800004F580146D1C6D1C2A786E2A1FD00CDCA3
:101D9000632A31D004DC002A8BD0582A11D1A3E069
:101DA000642A68D0692A0CD165E0732A2ED004DC3D
:101DB0006F2A73D0702A04D19BE0752A6FD0782ADD
:101DC0006ED01046DDE90F129047761C50E1C4F347
:101DD0000250022806D0032809D0042801CF09D0D8
:101DE000066045E101CFF117C0E9006140E101CF94
:101DF00006803DE106703BE117F8040B8DF800000A
:101E000000208DF80100EB46012003E057F804BBE9
:101E10004FF0FF3061074FF0000102D40DE008F1F0
:101E20000101884649450FDA8045F8DB1BF80810A8
:101E30000029F4D108E008F1010188468142FADB6B
:101E40001BF808100029F6D1DDE90F23AAEB0800E2
:101E50008146214600F036F9304400EB080604E0E4
:101E6000DDE90F121BF8010B9047B8F10108F7D21A
:101E700021464846F7E00A21C4F302534FF0000B15
:101E80000891022B04D001CFC117032B09D00AE01F
:101E9000FF1D27F00707F7E8020108E032E01FE026
:101EA00020E000B2C117042B01D140B2C117031EBC
:101EB00071F1000307DA4FF0000CD0EB0C006CEB73
:101EC00001012D2302E0230504D52B238DF82430B6
:101ED000012303E0E30701D02023F7E7984658E009
:101EE0000A2110E010210EE010204FF0000B0890A6
:101EF0000CE010214FF0000B44F004044FF00809EF
:101F0000089103E008214FF0000B0891C4F302533D
:101F1000022B04D001CF0021032B06D006E0FF1DC9
:101F200027F00707F7E8020103E080B2042B00D195
:101F3000C0B24FF0000823072BD5702A07D0DDF878
:101F400020C08CF0100C5CEA0B0C05D00EE0402396
:101F50008DF82430012308E050EA010306D0302335
:101F60008DF824308DF8252002239846DDF820C016
:101F70008CF0080C5CEA0B0C0BD150EA010301D188
:101F8000630706D530238DF824304FF00108A9F1FE
:101F90000109582A04D038A20B9208AA0A920BE031
:101FA0003AA2F9E75B46089AFEF788F90B9B9B5C1F
:101FB0000A9A521E0A92137050EA0102F2D10A984C
:101FC000ADEB000000F1200B600702D524F4803453
:101FD00001E04FF00109D94502DDA9EB0B0000E05B
:101FE000002000EB0B0141440890AAEB010AE0033A
:101FF00006D4DDE90F232146504600F063F806447D
:102000004FF0000908E009A911F80900DDE90F12F5
:10201000904709F10109761CC145F4DBE0030CD5BA
:10202000DDE90F232146504600F04CF8064404E059
:10203000DDE90F1230209047761C0899481E089061
:102040000029F5DC08E00A980A990078491C0A91F1
:10205000DDE90F129047761CBBF10001ABF1010BDB
:10206000F1DC21465046DDE90F2300F019F8064463
:102070006D1C1BE609280100303132333435363708
:1020800038396162636465660000000030313233C4
:102090003435363738394142434445460000000064
:1020A0002DE9F041044600251E461746880404D455
:1020B00005E039462020B0476D1C641EF9D528463E
:1020C000BDE8F0812DE9F041044600251E4690460A
:1020D000C80301D5302700E02027880404D505E097
:1020E00041463846B0476D1C641EF9D52846BDE808
:1020F000F08170B5FF25284600F029F80446552CDC
:1021000001D1002070BD5521284600F05BF8FF206A
:1021100000F01DF80446552C01D10020F2E7012003
:10212000F0E710B500F0E6F810BD70B505460C46B6
:10213000164606E028466A1C95B200F008F804F836
:10214000010B301EA6F101018EB2F3D170BD70B546
:102150000446002600F094F92112A02202EB41016E
:10216000C8B200F055F900F0D3F92546E11704EBA9
:1021700011610912A4EB0121C8B200F049F900F085
:10218000C7F900F07DF9A12000F042F900F0C0F994
:10219000002000F00DF9064600F09AF9304670BDB7
:1021A00070B505460C46164606E02178284600F034
:1021B00009F8681C85B2641C301EA6F101018EB2BC
:1021C000F3D170BD70B504460E4600F059F92112E6
:1021D000A02202EB4101C8B200F01AF900F098F910
:1021E0002546E11704EB11610912A4EB0121C8B2E5
:1021F00000F00EF900F08CF9304600F009F900F01B
:1022000087F900F065F90A2000F008F870BD0000B9
:1022100001490860704700000400002010B5044622
:102220004FF47A7104FB01F000F002F810BD0000D9
:1022300070B5034600224FF0E02675690D4E3668F2
:1022400003FB06F44FF0E026B16910E04FF0E02602
:10225000B06988420BD0884202D20E1A324402E0A2
:102260002E1A0E4432440146A24200D300E0EDE7AC
:1022700000BF70BD0400002000BF054A126802F0D4
:102280004002002AF9D0C2B2014B1B1D1A607047F0
:102290000038014010B500BF00224FF40061114822
:1022A000FEF700FC00BF00F01FF800BF0122910202
:1022B0000C48FEF7F7FB00BF00F016F800BF002245
:1022C0004FF480610748FEF7EDFB00BF00F00CF80B
:1022D00000BF0122D1020348FEF7E4FB00BF00F07B
:1022E00003F810BD000C014010B50220FFF7A0FF5D
:1022F00010BD000000B585B000BF00BF1A4880695E
:1023000040F01000184988610846806900F010000C
:10231000009000BF00BF00BF00BF00BF084680693B
:1023200040F0100088610846806900F010000090BD
:1023300000BF00BF00BF081501900120029003906C
:102340000320049001A90948FEF7FAF94FF4006050
:1023500001901120029001A90448FEF7F1F900F064
:10236000B7F805B000BD000000100240000C0140AD
:1023700010B500BF0122D1020C48FEF793FB00BF4D
:10238000FFF7B2FF00BF012291020848FEF78AFB67
:1023900000BFFFF7A9FF00BF00224FF48061034890
:1023A000FEF780FB00BFFFF79FFF10BD000C014050
:1023B00070B50546002400261EE06006040E00BF2E
:1023C000012291021148FEF76DFB00BFFFF78CFF61
:1023D0004FF400610D48FEF753FB08B1601CC4B216
:1023E00000BF00224FF480610848FEF75BFB00BF8E
:1023F000FFF77AFF701CC6B2082EDEDB15B9FFF7B7
:10240000B7FF01E0FFF746FF204670BD000C01401A
:1024100070B50446002526E000BFE00928B101227E
:10242000D1021648FEF73EFB05E000224FF40061A2
:102430001248FEF737FB00BFFFF756FF00BF01222F
:1024400091020E48FEF72EFB00BFFFF74DFF00BFC5
:1024500000224FF480610948FEF724FB00BF6006AC
:10246000040E681CC5B2082DD6DB00BF0122D102C4
:102470000248FEF717FB00BF70BD0000000C0140D2
:1024800010B500BF0122D1021048FEF70BFB00BFC0
:1024900000BF012291020D48FEF704FB00BFFFF7C9
:1024A00023FF00BF00224FF400610848FEF7FAFA4C
:1024B00000BFFFF719FF00BF00224FF480610348FF
:1024C000FEF7F0FA00BFFFF70FFF10BD000C014050
:1024D00010B500BF00224FF400610C48FEF7E2FA8D
:1024E00000BFFFF701FF00BF012291020748FEF77E
:1024F000D9FA00BFFFF7F8FE00BF0122D10203485E
:10250000FEF7D0FA00BFFFF7EFFE10BD000C014050
:1025100070B50024002500BF0122D1021548FEF746
:10252000C1FA00BFFFF7E0FE00BF0122910211488F
:10253000FEF7B8FA00BFFFF7D7FE07E0601CC4B291
:10254000FA2C03DDFFF7C4FF012506E04FF400611C
:102550000848FEF795FA0028F0D100BF00BF00221E
:102560004FF480610348FEF79DFA00BFFFF7BCFE01
:10257000284670BD000C014000B585B000BF00BF0B
:102580003648806940F040003449886108468069D7
:1025900000F04000009000BF00BF00BF00BF00BFC0
:1025A0000846806940F0400088610846806900F074
:1025B0004000009000BF00BF00BF00BF00BF084642
:1025C000806940F0400088610846806900F0400062
:1025D000009000BF00BF00BF00BF00BF0846806979
:1025E00040F0040088610846806900F00400009013
:1025F00000BF00BF00BF102001900020029001200A
:1026000003900320049001A91548FEF799F80820CB
:10261000019000200290012003900320049001A962
:102620000F48FEF78DF80420019000200290012051
:1026300003900320049001A90948FEF781F80120C6
:10264000019000200290022003900320049001A931
:102650000448FEF775F805B000BD00000010024008
:10266000001801400008014070B50446002514B16F
:1026700001202B4908702A480078002833D0102107
:102680002848FEF7FDF970B108212648FEF7F8F951
:1026900048B104212348FEF7F3F920B10121224873
:1026A000FEF7EEF9F8B90A20FFF7B8FD00201C4943
:1026B000087010211B48FEF7E3F900B90125082135
:1026C0001848FEF7DDF900B9022504211548FEF788
:1026D000D7F900B9032501211348FEF7D1F90128E4
:1026E0001BD1042519E010210E48FEF7C9F9012875
:1026F00013D108210B48FEF7C3F901280DD104219D
:102700000848FEF7BDF9012807D101210648FEF768
:10271000B7F910B9012002490870284670BD0000C1
:1027200019000020001801400008014070B504465F
:10273000002609480588408845430021084603F0E3
:102740007FF803F025FA00BF02E004480480761CFD
:10275000AE42FAD370BD0000B40200200008006C45
:1027600010B5044658488471002C58D1F0205649C1
:1027700008804FF4A07048800846808845F21051C8
:10278000884210D14FF430504F4908814FF42850FF
:1027900048814FF42C5088814FF4F07008804FF43A
:1027A000487048801AE04848808841F663118842A2
:1027B0000DD12C20444908812B2048812A20888172
:1027C0004FF4F07008804FF44870488006E02C20E9
:1027D0003D4908812A2048812B2088813A488088F9
:1027E00045F21031884205D03748808847F296710B
:1027F000884206D14FF4A070334908804FF4F0703E
:1028000048803148808849F60601884258D14FF403
:10281000F0702D4908804FF44870488050E04FF424
:10282000A07029490880F02048800846808845F239
:102830001051884210D14FF43050234908814FF491
:10284000285048814FF42C5088814FF448700880FC
:102850004FF4F070488020E01B48808841F66311F7
:10286000884205D01848808849F6060188420DD173
:102870002C20154908812A2048812B2088814FF47B
:10288000487008804FF4F070488006E02C200E4914
:1028900008812A2048812B2088810B48808845F2B6
:1028A0001031884205D00848808847F296718842E6
:1028B00006D14FF4F070044908804FF4A0704880AE
:1028C000002002F09FFE10BDB402002070B5054646
:1028D0000E4614463146284602F0B2FF03F058F97E
:1028E00001490C8070BD00000008006C10B5CF20BD
:1028F00003F042F9002003F033F9C12003F030F96E
:10290000302003F02DF9ED2003F036F9642003F0B8
:1029100027F9032003F024F9122003F021F9812084
:1029200003F01EF9E82003F027F9852003F018F9D9
:10293000102003F015F97A2003F012F9CB2003F0F0
:102940001BF9392003F00CF92C2003F009F90020C1
:1029500003F006F9342003F003F9022003F000F934
:10296000F72003F009F9202003F0FAF8EA2003F039
:1029700003F9002003F0F4F8002003F0F1F8C02080
:1029800003F0FAF81B2003F0EBF8C12003F0F4F891
:10299000012003F0E5F8C52003F0EEF8302003F045
:1029A000DFF8302003F0DCF8C72003F0E5F8B720AB
:1029B00003F0D6F8362003F0DFF8482003F0D0F813
:1029C0003A2003F0D9F8552003F0CAF8B12003F0FB
:1029D000D3F8002003F0C4F81A2003F0C1F8B620A1
:1029E00003F0CAF80A2003F0BBF8A22003F0B8F8FD
:1029F000F22003F0C1F8002003F0B2F8262003F023
:102A0000BBF8012003F0ACF8E02003F0B5F80F208C
:102A100003F0A6F82A2003F0A3F8282003F0A0F87A
:102A2000082003F09DF80E2003F09AF8082003F028
:102A300097F8542003F094F8A92003F091F843206C
:102A400003F08EF80A2003F08BF80F2003F088F8CB
:102A5000002003F085F8002003F082F8002003F046
:102A60007FF8002003F07CF8E12003F085F80020D7
:102A700003F076F8152003F073F8172003F070F8D0
:102A8000072003F06DF8112003F06AF8062003F028
:102A900067F82B2003F064F8562003F061F83C201F
:102AA00003F05EF8052003F05BF8102003F058F8FF
:102AB0000F2003F055F83F2003F052F83F2003F0B9
:102AC0004FF80F2003F04CF82B2003F055F80020AE
:102AD00003F046F8002003F043F8012003F040F82B
:102AE0003F2003F03DF82A2003F046F8002003F0D1
:102AF00037F8002003F034F8002003F031F8EF201D
:102B000003F02EF8112003F037F87820FFF786FB4A
:102B1000292003F031F810BD10B5FF2003F02CF888
:102B2000FF2003F01DF8982003F01AF8062003F0A8
:102B300017F8BC2003F020F8012003F011F80F2053
:102B400003F00EF8612003F00BF8FF2003F008F803
:102B5000012003F005F8012003F002F80B2002F039
:102B6000FFFF102002F0FCFF372002F0F9FF632086
:102B700002F0F6FFFF2002F0F3FFFF2002F0F0FF6B
:102B8000012002F0EDFF012002F0EAFF002002F038
:102B9000E7FF002002F0E4FFFF2002F0E1FF5220F7
:102BA00002F0DEFF012002F0DBFF002002F0D8FF80
:102BB000402002F0D5FFBD2002F0DEFF012002F030
:102BC000CFFF232002F0CCFF452002F0C9FF672091
:102BD00002F0C6FF012002F0C3FF232002F0C0FF75
:102BE000452002F0BDFF672002F0BAFFBE2002F0D0
:102BF000C3FF002002F0B4FF012002F0B1FFAB20C0
:102C000002F0AEFF602002F0ABFF222002F0A8FF2E
:102C1000222002F0A5FF222002F0A2FF222002F0D3
:102C20009FFF222002F09CFFC72002F0A5FF362064
:102C300002F096FFED2002F09FFF7F2002F090FF50
:102C40000F2002F08DFFC02002F096FF0F2002F04F
:102C500087FF0B2002F084FF0A2002F081FFFC2096
:102C600002F08AFF082002F07BFFDF2002F084FFE1
:102C7000002002F075FF002002F072FF002002F039
:102C80006FFF002002F06CFF002002F069FF20209F
:102C900002F066FFF32002F06FFF742002F060FF85
:102CA000B42002F069FF002002F05AFF002002F079
:102CB00057FF002002F054FFF72002F05DFF822052
:102CC00002F04EFFB12002F057FF002002F048FF53
:102CD000132002F045FF132002F042FFF22002F021
:102CE0004BFF802002F03CFF042002F039FF40201F
:102CF00002F036FF282002F033FFC12002F03CFF33
:102D0000172002F02DFF882002F02AFF882002F011
:102D100027FF202002F024FFE02002F02DFF0020FA
:102D200002F01EFF0A2002F01BFF122002F018FF23
:102D3000102002F015FF0E2002F012FF202002F0FA
:102D40000FFFCC2002F00CFF072002F009FF062045
:102D500002F006FF0B2002F003FF0E2002F000FF3E
:102D60000F2002F0FDFE0D2002F0FAFE152002F009
:102D7000F7FE102002F0F4FE002002F0F1FEE12048
:102D800002F0FAFE002002F0EBFE0B2002F0E8FE5B
:102D9000132002F0E5FE0D2002F0E2FE0E2002F00C
:102DA000DFFE1B2002F0DCFE712002F0D9FE0620BF
:102DB00002F0D6FE062002F0D3FE0A2002F0D0FE7A
:102DC0000F2002F0CDFE0E2002F0CAFE0F2002F00E
:102DD000C7FE152002F0C4FE0C2002F0C1FE002048
:102DE00002F0BEFE2A2002F0C7FE002002F0B8FE6C
:102DF000002002F0B5FE012002F0B2FEDF2002F05A
:102E0000AFFE2B2002F0B8FE002002F0A9FE002049
:102E100002F0A6FE032002F0A3FE1F2002F0A0FE97
:102E20003A2002F0A9FE552002F09AFE362002F068
:102E3000A3FE002002F094FE112002F09DFE7820F7
:102E4000FFF7ECF9292002F097FE1420FFF7E6F9CE
:102E50002C2002F091FE10BD10B5ED2002F08CFE8A
:102E6000012002F07DFEFE2002F07AFEEE2002F04C
:102E700083FEDE2002F074FE212002F071FEF120BC
:102E800002F07AFE012002F06BFEDF2002F074FEF9
:102E9000102002F065FEC42002F06EFE8F2002F0CA
:102EA0005FFEC62002F068FE002002F059FEE2201C
:102EB00002F056FEE22002F053FEE22002F050FE45
:102EC000BF2002F059FEAA2002F04AFEB02002F014
:102ED00053FE0D2002F044FE002002F041FE0D20C2
:102EE00002F03EFE002002F03BFE112002F038FE10
:102EF000002002F035FE192002F032FE002002F020
:102F00002FFE212002F02CFE002002F029FE2D20B1
:102F100002F026FE002002F023FE3D2002F020FEFB
:102F2000002002F01DFE5D2002F01AFE002002F0DB
:102F300017FE5D2002F014FE002002F011FEB12009
:102F400002F01AFE802002F00BFE002002F008FEC4
:102F50008B2002F005FE002002F002FE962002F017
:102F6000FFFD002002F0FCFDB22002F005FE002073
:102F700002F0F6FD002002F0F3FD022002F0F0FD69
:102F8000002002F0EDFD032002F0EAFD002002F037
:102F9000E7FDB32002F0F0FD002002F0E1FD00208B
:102FA00002F0DEFD002002F0DBFD002002F0D8FD83
:102FB000002002F0D5FD002002F0D2FD002002F03A
:102FC000CFFD002002F0CCFD002002F0C9FD002062
:102FD00002F0C6FD002002F0C3FD002002F0C0FD9B
:102FE000002002F0BDFD002002F0BAFD002002F03A
:102FF000B7FD002002F0B4FD002002F0B1FD00207A
:1030000002F0AEFD002002F0ABFD002002F0A8FDB2
:10301000002002F0A5FD002002F0A2FD002002F039
:103020009FFD002002F09CFDB42002F0A5FD8B2046
:1030300002F096FD002002F093FD962002F090FD34
:10304000002002F08DFDA12002F08AFD002002F098
:1030500087FDB52002F090FD022002F081FD0020E6
:1030600002F07EFD032002F07BFD002002F078FDDF
:10307000042002F075FD002002F072FDB62002F07F
:103080007BFD002002F06CFD002002F069FDB720FE
:1030900002F072FD002002F063FD002002F060FDEE
:1030A0003F2002F05DFD002002F05AFD5E2002F09C
:1030B00057FD002002F054FD642002F051FD002075
:1030C00002F04EFD8C2002F04BFD002002F048FD86
:1030D000AC2002F045FD002002F042FDDC2002F0B1
:1030E0003FFD002002F03CFD702002F039FD002081
:1030F00002F036FD902002F033FD002002F030FD9A
:10310000EB2002F02DFD002002F02AFDDC2002F071
:1031100027FD002002F024FDB82002F02DFD002044
:1031200002F01EFD002002F01BFD002002F018FD41
:10313000002002F015FD002002F012FD002002F038
:103140000FFD002002F00CFD002002F009FDBA2066
:1031500002F012FD242002F003FD002002F000FD29
:10316000002002F0FDFC002002F0FAFCC12002F079
:1031700003FD202002F0F4FC002002F0F1FC5420BA
:1031800002F0EEFC002002F0EBFCFF2002F0E8FC75
:10319000002002F0E5FCC22002F0EEFC0A2002F062
:1031A000DFFC002002F0DCFC042002F0D9FC00204F
:1031B00002F0D6FCC32002F0DFFC3C2002F0D0FC81
:1031C000002002F0CDFC3A2002F0CAFC002002F000
:1031D000C7FC392002F0C4FC002002F0C1FC3720FB
:1031E00002F0BEFC002002F0BBFC3C2002F0B8FC68
:1031F000002002F0B5FC362002F0B2FC002002F004
:10320000AFFC322002F0ACFC002002F0A9FC2F2021
:1032100002F0A6FC002002F0A3FC2C2002F0A0FC8F
:10322000002002F09DFC292002F09AFC002002F010
:1032300097FC262002F094FC002002F091FC242050
:1032400002F08EFC002002F08BFC242002F088FCAF
:10325000002002F085FC232002F082FC002002F016
:103260007FFC3C2002F07CFC002002F079FC362040
:1032700002F076FC002002F073FC322002F070FCB9
:10328000002002F06DFC2F2002F06AFC002002F00A
:1032900067FC2C2002F064FC002002F061FC292075
:1032A00002F05EFC002002F05BFC262002F058FCDD
:1032B000002002F055FC242002F052FC002002F015
:1032C0004FFC242002F04CFC002002F049FC23209B
:1032D00002F046FC002002F043FCC42002F04CFC4B
:1032E000622002F03DFC002002F03AFC052002F0D2
:1032F00037FC002002F034FC842002F031FC002076
:1033000002F02EFCF02002F02BFC002002F028FC42
:10331000182002F025FC002002F022FCA42002F07C
:103320001FFC002002F01CFC182002F019FC0020F9
:1033300002F016FC502002F013FC002002F010FCFA
:103340000C2002F00DFC002002F00AFC172002F015
:1033500007FC002002F004FC952002F001FC002094
:1033600002F0FEFBF32002F0FBFB002002F0F8FB72
:10337000E62002F0F5FB002002F0F2FBC52002F08F
:10338000FBFB322002F0ECFB002002F0E9FB4420C2
:1033900002F0E6FB002002F0E3FB652002F0E0FB18
:1033A000002002F0DDFB762002F0DAFB002002F0C4
:1033B000D7FB882002F0D4FB002002F0D1FBC6200E
:1033C00002F0DAFB202002F0CBFB002002F0C8FB69
:1033D000172002F0C5FB002002F0C2FB012002F022
:1033E000BFFB002002F0BCFBC72002F0C5FB0020A1
:1033F00002F0B6FB002002F0B3FB002002F0B0FBAD
:10340000002002F0ADFBC82002F0B6FB002002F065
:10341000A7FB002002F0A4FB002002F0A1FB00208B
:1034200002F09EFBC92002F0A7FB002002F098FBEF
:10343000002002F095FB002002F092FB002002F039
:103440008FFB002002F08CFB002002F089FB0020A3
:1034500002F086FB002002F083FB002002F080FBDC
:10346000002002F07DFB002002F07AFB002002F039
:1034700077FB002002F074FB002002F071FB0020BB
:1034800002F06EFB002002F06BFBE02002F074FB08
:10349000162002F065FB002002F062FB1C2002F007
:1034A0005FFB002002F05CFB212002F059FB0020B2
:1034B00002F056FB362002F053FB002002F050FBD6
:1034C000462002F04DFB002002F04AFB522002F0A1
:1034D00047FB002002F044FB642002F041FB002087
:1034E00002F03EFB7A2002F03BFB002002F038FBAA
:1034F0008B2002F035FB002002F032FB992002F015
:103500002FFB002002F02CFBA82002F029FB00205A
:1035100002F026FBB92002F023FB002002F020FB82
:10352000C42002F01DFB002002F01AFBCA2002F0AA
:1035300017FB002002F014FBD22002F011FB002048
:1035400002F00EFBD92002F00BFB002002F008FB7A
:10355000E02002F005FB002002F002FBF32002F065
:10356000FFFA002002F0FCFAE12002F005FB162031
:1035700002F0F6FA002002F0F3FA1C2002F0F0FA52
:10358000002002F0EDFA222002F0EAFA002002F018
:10359000E7FA362002F0E4FA002002F0E1FA4520D2
:1035A00002F0DEFA002002F0DBFA522002F0D8FA34
:1035B000002002F0D5FA642002F0D2FA002002F0D6
:1035C000CFFA7A2002F0CCFA002002F0C9FA8B2060
:1035D00002F0C6FA002002F0C3FA992002F0C0FA05
:1035E000002002F0BDFAA82002F0BAFA002002F092
:1035F000B7FAB92002F0B4FA002002F0B1FAC42000
:1036000002F0AEFA002002F0ABFACA2002F0A8FAEB
:10361000002002F0A5FAD22002F0A2FA002002F067
:103620009FFAD82002F09CFA002002F099FAE020DC
:1036300002F096FA002002F093FAF32002F090FADA
:10364000002002F08DFAE22002F096FA052002F046
:1036500087FA002002F084FA0B2002F081FA0020A1
:1036600002F07EFA1B2002F07BFA002002F078FACA
:10367000342002F075FA002002F072FA442002F0C1
:103680006FFA002002F06CFA4F2002F069FA002075
:1036900002F066FA612002F063FA002002F060FA9C
:1036A000792002F05DFA002002F05AFA882002F038
:1036B00057FA002002F054FA972002F051FA002045
:1036C00002F04EFAA62002F04BFA002002F048FA6F
:1036D000B72002F045FA002002F042FAC22002F0C0
:1036E0003FFA002002F03CFAC72002F039FA00202D
:1036F00002F036FAD12002F033FA002002F030FA5C
:10370000D62002F02DFA002002F02AFADD2002F085
:1037100027FA002002F024FAF32002F021FA002018
:1037200002F01EFAE32002F027FA052002F018FA50
:10373000002002F015FA0A2002F012FA002002F02E
:103740000FFA1C2002F00CFA002002F009FA3320D4
:1037500002F006FA002002F003FA442002F000FA18
:10376000002002F0FDF9502002F0FAF9002002F0EA
:10377000F7F9622002F0F4F9002002F0F1F9782064
:1037800002F0EEF9002002F0EBF9882002F0E8F9EF
:10379000002002F0E5F9972002F0E2F9002002F0A3
:1037A000DFF9A62002F0DCF9002002F0D9F9B720F9
:1037B00002F0D6F9002002F0D3F9C22002F0D0F9CD
:1037C000002002F0CDF9C72002F0CAF9002002F073
:1037D000C7F9D12002F0C4F9002002F0C1F9D520C8
:1037E00002F0BEF9002002F0BBF9DD2002F0B8F9CA
:1037F000002002F0B5F9F32002F0B2F9002002F047
:10380000AFF9E42002F0B8F9012002F0A9F9002094
:1038100002F0A6F9012002F0A3F9002002F0A0F9BD
:10382000022002F09DF9002002F09AF92A2002F00D
:1038300097F9002002F094F93C2002F091F9002061
:1038400002F08EF94B2002F08BF9002002F088F98B
:103850005D2002F085F9002002F082F9742002F068
:103860007FF9002002F07CF9842002F079F9002031
:1038700002F076F9932002F073F9002002F070F95B
:10388000A22002F06DF9002002F06AF9B32002F0E4
:1038900067F9002002F064F9BE2002F061F900200F
:1038A00002F05EF9C42002F05BF9002002F058F942
:1038B000CD2002F055F9002002F052F9D32002F099
:1038C0004FF9002002F04CF9DD2002F049F9002008
:1038D00002F046F9F32002F043F9002002F040F92B
:1038E000E52002F049F9002002F03AF9002002F048
:1038F00037F9002002F034F9002002F031F90220FB
:1039000002F02EF9002002F02BF9292002F028F90C
:10391000002002F025F93C2002F022F9002002F0FC
:103920001FF94B2002F01CF9002002F019F95D206C
:1039300002F016F9002002F013F9742002F010F9D9
:10394000002002F00DF9842002F00AF9002002F0B4
:1039500007F9932002F004F9002002F001F9A220F7
:1039600002F0FEF8002002F0FBF8B32002F0F8F8B5
:10397000002002F0F5F8BE2002F0F2F8002002F07C
:10398000EFF8C42002F0ECF8002002F0E9F8CD20B6
:1039900002F0E6F8002002F0E3F8D32002F0E0F8AD
:1039A000002002F0DDF8DC2002F0DAF8002002F05E
:1039B000D7F8F32002F0D4F8002002F0D1F8E62086
:1039C00002F0DAF8112002F0CBF8002002F0C8F87B
:1039D000342002F0C5F8002002F0C2F8562002F0B0
:1039E000BFF8002002F0BCF8762002F0B9F8002001
:1039F00002F0B6F8772002F0B3F8002002F0B0F839
:103A0000662002F0ADF8002002F0AAF8882002F04B
:103A1000A7F8002002F0A4F8992002F0A1F80020F5
:103A200002F09EF8BB2002F09BF8002002F098F80C
:103A3000992002F095F8002002F092F8662002F03A
:103A40008FF8002002F08CF8552002F089F8002051
:103A500002F086F8552002F083F8002002F080F88A
:103A6000452002F07DF8002002F07AF8432002F0B1
:103A700077F8002002F074F8442002F071F800207A
:103A800002F06EF8E72002F077F8322002F068F8D2
:103A9000002002F065F8552002F062F8002002F0E4
:103AA0005FF8762002F05CF8002002F059F86620FA
:103AB00002F056F8002002F053F8672002F050F8A8
:103AC000002002F04DF8672002F04AF8002002F0D2
:103AD00047F8872002F044F8002002F041F89920CE
:103AE00002F03EF8002002F03BF8BB2002F038F86C
:103AF000002002F035F8992002F032F8002002F0A0
:103B00002FF8772002F02CF8002002F029F844204A
:103B100002F026F8002002F023F8562002F020F8E8
:103B2000002002F01DF8232002F01AF8002002F015
:103B300017F8332002F014F8002002F011F84520A5
:103B400002F00EF8002002F00BF8E82002F014F862
:103B5000002002F005F8002002F002F8992001F0A0
:103B6000FFFF002001F0FCFF872001F0F9FF00209B
:103B700001F0F6FF882001F0F3FF002001F0F0FFD4
:103B8000772001F0EDFF002001F0EAFF662001F050
:103B9000E7FF002001F0E4FF882001F0E1FF0020B2
:103BA00001F0DEFFAA2001F0DBFF002001F0D8FFCA
:103BB000BB2001F0D5FF002001F0D2FF992001F0D9
:103BC000CFFF002001F0CCFF662001F0C9FF0020EC
:103BD00001F0C6FF552001F0C3FF002001F0C0FF37
:103BE000552001F0BDFF002001F0BAFF442001F094
:103BF000B7FF002001F0B4FF442001F0B1FF002026
:103C000001F0AEFF552001F0ABFF002001F0A8FF4E
:103C1000E92001F0B1FFAA2001F0A2FF002001F08D
:103C20009FFF002001F09CFF002001F099FF002081
:103C300001F0A2FFAA2001F093FFCF2001F09CFF2A
:103C4000002001F08DFF002001F08AFF002001F02C
:103C500087FF002001F084FF002001F081FF002099
:103C600001F07EFF002001F07BFF002001F078FFD3
:103C7000002001F075FF002001F072FF002001F02C
:103C80006FFF002001F06CFF002001F069FF0020B1
:103C900001F066FF002001F063FF002001F060FFEB
:103CA000002001F05DFFF02001F066FF002001F030
:103CB00057FF502001F054FF002001F051FF002079
:103CC00001F04EFF002001F04BFFF32001F054FF04
:103CD000002001F045FFF92001F04EFF062001F021
:103CE0003FFF102001F03CFF292001F039FF0020A8
:103CF00001F036FF3A2001F03FFF552001F030FF80
:103D0000112001F039FF6420FEF788FA292001F024
:103D100033FF352001F030FF002001F021FF51205A
:103D200001F02AFFFF2001F01BFF532001F024FFC8
:103D30002C2001F015FF552001F01EFF822001F01C
:103D40000FFF2C2001F018FF10BD10B555214FF4C6
:103D5000704001F027FFAA214FF2010001F022FF7D
:103D600052214FF2020001F01DFF08214FF2030023
:103D700001F018FF01214FF2040001F013FF0D21A3
:103D80004FF4304001F00EFF0D214BF2010001F025
:103D900009FF0D214BF2020001F004FF34214FF422
:103DA000364001F0FFFE34214BF2016001F0FAFED3
:103DB00034214BF2026001F0F5FE0D214FF4314049
:103DC00001F0F0FE0D214BF2011001F0EBFE0D2190
:103DD0004BF2021001F0E6FE34214FF4374001F0BF
:103DE000E1FE34214BF2017001F0DCFE34214BF294
:103DF000027001F0D7FE00214FF4324001F0D2FEF4
:103E000000214BF2012001F0CDFE00214BF20220F7
:103E100001F0C8FE24214FF4384001F0C3FE2421F4
:103E20004BF6010001F0BEFE24214BF6020001F02A
:103E3000B9FE01214FF43F4001F0B4FE0F214FF4D1
:103E4000334001F0AFFE0F214BF2013001F0AAFE2A
:103E50000F214BF2023001F0A5FE34214FF439401E
:103E600001F0A0FE34214BF6011001F09BFE34213D
:103E70004BF6021001F096FE08214FF4354001F098
:103E800091FE08214BF2015001F08CFE08214BF20B
:103E9000025001F087FE03214FF4424001F082FE00
:103EA00024214FF43A4001F07DFE24214BF60120FD
:103EB00001F078FE24214BF6022001F073FE002170
:103EC0004FF43C4001F06EFE78214BF6014001F0CA
:103ED00069FE00214BF6024001F064FE00214FF420
:103EE0003D4001F05FFE78214BF6015001F05AFE93
:103EF00000214BF6025001F055FE00214FF43E40E8
:103F000001F050FE64214BF6016001F04BFE0021F0
:103F10004FF4514001F046FE33214DF2011001F003
:103F200041FE00214DF2021001F03CFE34214DF221
:103F3000031001F037FE00214DF2041001F032FEB3
:103F40003A214DF2051001F02DFE00214DF2061030
:103F500001F028FE4A214DF2071001F023FE002156
:103F60004DF2081001F01EFE5C214DF2091001F027
:103F700019FE00214DF20A1001F014FE81214DF2CC
:103F80000B1001F00FFE00214DF20C1001F00AFEA3
:103F9000A6214DF20D1001F005FE00214DF20E108C
:103FA00001F000FEE5214DF20F1001F0FBFD0121B3
:103FB0004DF2101001F0F6FD13214DF2111001F039
:103FC000F1FD01214DF2121001F0ECFD54214DF2F2
:103FD000131001F0E7FD01214DF2141001F0E2FD94
:103FE00082214DF2151001F0DDFD01214DF2161078
:103FF00001F0D8FDCA214DF2171001F0D3FD0221C6
:104000004DF2181001F0CEFD00214DF2191001F013
:10401000C9FD02214DF21A1001F0C4FD01214DF23B
:104020001B1001F0BFFD02214DF21C1001F0BAFD82
:1040300034214DF21D1001F0B5FD02214DF21E108C
:1040400001F0B0FD67214DF21F1001F0ABFD022120
:104050004DF2201001F0A6FD84214DF2211001F057
:10406000A1FD02214DF2221001F09CFDA4214DF290
:10407000231001F097FD02214DF2241001F092FD72
:10408000B7214DF2251001F08DFD02214DF22610D1
:1040900001F088FDCF214DF2271001F083FD0221B0
:1040A0004DF2281001F07EFDDE214DF2291001F0C5
:1040B00079FD02214DF22A1001F074FDF2214DF23A
:1040C0002B1001F06FFD02214DF22C1001F06AFD62
:1040D000FE214DF22D1001F065FD03214DF22E1051
:1040E00001F060FD10214DF22F1001F05BFD032166
:1040F0004DF2301001F056FD33214DF2311001F038
:1041000051FD03214DF2321001F04CFD6D214DF2B5
:10411000331001F047FD00214FF4524001F042FD01
:1041200033214DF2012001F03DFD00214DF202202E
:1041300001F038FD34214DF2032001F033FD002160
:104140004DF2042001F02EFD3A214DF2052001F040
:1041500029FD00214DF2062001F024FD4A214DF2F7
:10416000072001F01FFD00214DF2082001F01AFD8B
:104170005C214DF2092001F015FD00214DF20A20CD
:1041800001F010FD81214DF20B2001F00BFD00210B
:104190004DF20C2001F006FDA6214DF20D2001F09C
:1041A00001FD00214DF20E2001F0FCFCE5214DF255
:1041B0000F2001F0F7FC01214DF2102001F0F2FC7C
:1041C00013214DF2112001F0EDFC01214DF21220DE
:1041D00001F0E8FC54214DF2132001F0E3FC012131
:1041E0004DF2142001F0DEFC82214DF2152001F089
:1041F000D9FC01214DF2162001F0D4FCCA214DF268
:10420000172001F0CFFC02214DF2182001F0CAFC6A
:1042100000214DF2192001F0C5FC02214DF21A20B7
:1042200001F0C0FC01214DF21B2001F0BBFC02217A
:104230004DF21C2001F0B6FC34214DF21D2001F09E
:10424000B1FC02214DF21E2001F0ACFC67214DF2C1
:104250001F2001F0A7FC02214DF2202001F0A2FC5A
:1042600084214DF2212001F09DFC02214DF22220FB
:1042700001F098FCA4214DF2232001F093FC0221CF
:104280004DF2242001F08EFCB7214DF2252001F0E3
:1042900089FC02214DF2262001F084FCCF214DF251
:1042A000272001F07FFC02214DF2282001F07AFC4A
:1042B000DE214DF2292001F075FC02214DF22A2069
:1042C00001F070FCF2214DF22B2001F06BFC022179
:1042D0004DF22C2001F066FCFE214DF22D2001F064
:1042E00061FC03214DF22E2001F05CFC10214DF207
:1042F0002F2001F057FC03214DF2302001F052FC39
:1043000033214DF2312001F04DFC03214DF23220DA
:1043100001F048FC6D214DF2332001F043FC0021F7
:104320004FF4534001F03EFC33214DF2013001F0D7
:1043300039FC00214DF2023001F034FC34214DF201
:10434000033001F02FFC00214DF2043001F02AFC73
:104350003A214DF2053001F025FC00214DF20630E6
:1043600001F020FC4A214DF2073001F01BFC002136
:104370004DF2083001F016FC5C214DF2093001F0DD
:1043800011FC00214DF20A3001F00CFC81214DF2AC
:104390000B3001F007FC00214DF20C3001F002FC63
:1043A000A6214DF20D3001F0FDFB00214DF20E3043
:1043B00001F0F8FBE5214DF20F3001F0F3FB012194
:1043C0004DF2103001F0EEFB13214DF2113001F0EF
:1043D000E9FB01214DF2123001F0E4FB54214DF2D2
:1043E000133001F0DFFB01214DF2143001F0DAFB54
:1043F00082214DF2153001F0D5FB01214DF216302E
:1044000001F0D0FBCA214DF2173001F0CBFB0221A5
:104410004DF2183001F0C6FB00214DF2193001F0C9
:10442000C1FB02214DF21A3001F0BCFB01214DF21B
:104430001B3001F0B7FB02214DF21C3001F0B2FB42
:1044400034214DF21D3001F0ADFB02214DF21E3042
:1044500001F0A8FB67214DF21F3001F0A3FB022100
:104460004DF2203001F09EFB84214DF2213001F00D
:1044700099FB02214DF2223001F094FBA4214DF270
:10448000233001F08FFB02214DF2243001F08AFB32
:10449000B7214DF2253001F085FB02214DF2263087
:1044A00001F080FBCF214DF2273001F07BFB022190
:1044B0004DF2283001F076FBDE214DF2293001F07B
:1044C00071FB02214DF22A3001F06CFBF2214DF21A
:1044D0002B3001F067FB02214DF22C3001F062FB22
:1044E000FE214DF22D3001F05DFB03214DF22E3007
:1044F00001F058FB10214DF22F3001F053FB032146
:104500004DF2303001F04EFB33214DF2313001F0ED
:1045100049FB03214DF2323001F044FB6D214DF295
:10452000333001F03FFB00214FF4544001F03AFBDF
:1045300033214DF2014001F035FB00214DF20240E4
:1045400001F030FB34214DF2034001F02BFB002140
:104550004DF2044001F026FB3A214DF2054001F0F6
:1045600021FB00214DF2064001F01CFB4A214DF2D7
:10457000074001F017FB00214DF2084001F012FB4B
:104580005C214DF2094001F00DFB00214DF20A4083
:1045900001F008FB81214DF20B4001F003FB0021EB
:1045A0004DF20C4001F0FEFAA6214DF20D4001F053
:1045B000F9FA00214DF20E4001F0F4FAE5214DF236
:1045C0000F4001F0EFFA01214DF2104001F0EAFA3C
:1045D00013214DF2114001F0E5FA01214DF2124094
:1045E00001F0E0FA54214DF2134001F0DBFA012111
:1045F0004DF2144001F0D6FA82214DF2154001F03F
:10460000D1FA01214DF2164001F0CCFACA214DF247
:10461000174001F0C7FA02214DF2184001F0C2FA2A
:1046200000214DF2194001F0BDFA02214DF21A406D
:1046300001F0B8FA01214DF21B4001F0B3FA02215A
:104640004DF21C4001F0AEFA34214DF21D4001F054
:10465000A9FA02214DF21E4001F0A4FA67214DF2A1
:104660001F4001F09FFA02214DF2204001F09AFA1A
:1046700084214DF2214001F095FA02214DF22240B1
:1046800001F090FAA4214DF2234001F08BFA0221AF
:104690004DF2244001F086FAB7214DF2254001F099
:1046A00081FA02214DF2264001F07CFACF214DF231
:1046B000274001F077FA02214DF2284001F072FA0A
:1046C000DE214DF2294001F06DFA02214DF22A401F
:1046D00001F068FAF2214DF22B4001F063FA022159
:1046E0004DF22C4001F05EFAFE214DF22D4001F01A
:1046F00059FA03214DF22E4001F054FA10214DF2E7
:104700002F4001F04FFA03214DF2304001F04AFAF8
:1047100033214DF2314001F045FA03214DF2324090
:1047200001F040FA6D214DF2334001F03BFA0021D7
:104730004FF4554001F036FA33214DF2015001F0AB
:1047400031FA00214DF2025001F02CFA34214DF2E1
:10475000035001F027FA00214DF2045001F022FA33
:104760003A214DF2055001F01DFA00214DF206509C
:1047700001F018FA4A214DF2075001F013FA002116
:104780004DF2085001F00EFA5C214DF2095001F093
:1047900009FA00214DF20A5001F004FA81214DF28C
:1047A0000B5001F0FFF900214DF20C5001F0FAF925
:1047B000A6214DF20D5001F0F5F900214DF20E50F9
:1047C00001F0F0F9E5214DF20F5001F0EBF9012174
:1047D0004DF2105001F0E6F913214DF2115001F0A5
:1047E000E1F901214DF2125001F0DCF954214DF2B2
:1047F000135001F0D7F901214DF2145001F0D2F914
:1048000082214DF2155001F0CDF901214DF21650E3
:1048100001F0C8F9CA214DF2175001F0C3F9022185
:104820004DF2185001F0BEF900214DF2195001F07F
:10483000B9F902214DF21A5001F0B4F901214DF2FB
:104840001B5001F0AFF902214DF21C5001F0AAF902
:1048500034214DF21D5001F0A5F902214DF21E50F8
:1048600001F0A0F967214DF21F5001F09BF90221E0
:104870004DF2205001F096F984214DF2215001F0C3
:1048800091F902214DF2225001F08CF9A4214DF250
:10489000235001F087F902214DF2245001F082F9F2
:1048A000B7214DF2255001F07DF902214DF226503D
:1048B00001F078F9CF214DF2275001F073F9022170
:1048C0004DF2285001F06EF9DE214DF2295001F031
:1048D00069F902214DF22A5001F064F9F2214DF2FA
:1048E0002B5001F05FF902214DF22C5001F05AF9E2
:1048F000FE214DF22D5001F055F903214DF22E50BD
:1049000001F050F910214DF22F5001F04BF9032125
:104910004DF2305001F046F933214DF2315001F0A3
:1049200041F903214DF2325001F03CF96D214DF275
:10493000335001F037F900214FF4564001F032F9BD
:1049400033214DF2016001F02DF900214DF202609A
:1049500001F028F934214DF2036001F023F9002120
:104960004DF2046001F01EF93A214DF2056001F0AC
:1049700019F900214DF2066001F014F94A214DF2B7
:10498000076001F00FF900214DF2086001F00AF90B
:104990005C214DF2096001F005F900214DF20A6039
:1049A00001F000F981214DF20B6001F0FBF80021CC
:1049B0004DF20C6001F0F6F8A6214DF20D6001F009
:1049C000F1F800214DF20E6001F0ECF8E5214DF216
:1049D0000F6001F0E7F801214DF2106001F0E2F8FC
:1049E00013214DF2116001F0DDF801214DF212604A
:1049F00001F0D8F854214DF2136001F0D3F80121F1
:104A00004DF2146001F0CEF882214DF2156001F0F4
:104A1000C9F801214DF2166001F0C4F8CA214DF227
:104A2000176001F0BFF802214DF2186001F0BAF8EA
:104A300000214DF2196001F0B5F802214DF21A6023
:104A400001F0B0F801214DF21B6001F0ABF802213A
:104A50004DF21C6001F0A6F834214DF21D6001F00A
:104A6000A1F802214DF21E6001F09CF867214DF281
:104A70001F6001F097F802214DF2206001F092F8DA
:104A800084214DF2216001F08DF802214DF2226067
:104A900001F088F8A4214DF2236001F083F802218F
:104AA0004DF2246001F07EF8B7214DF2256001F04F
:104AB00079F802214DF2266001F074F8CF214DF211
:104AC000276001F06FF802214DF2286001F06AF8CA
:104AD000DE214DF2296001F065F802214DF22A60D5
:104AE00001F060F8F2214DF22B6001F05BF8022139
:104AF0004DF22C6001F056F8FE214DF22D6001F0D0
:104B000051F803214DF22E6001F04CF810214DF2C6
:104B10002F6001F047F803214DF2306001F042F8B8
:104B200033214DF2316001F03DF803214DF2326046
:104B300001F038F86D214DF2336001F033F8552162
:104B40004FF4704001F02EF8AA214FF2010001F05D
:104B500029F852214FF2020001F024F808214FF207
:104B6000030001F01FF800214FF2040001F01AF8D1
:104B7000CC214FF4314001F015F800214BF2011027
:104B800001F010F805214FF4364001F00BF87021C8
:104B90004FF4374001F006F870214BF2017001F03C
:104BA00001F801214FF4384000F0FCFF03214BF6DF
:104BB000010000F0F7FF03214BF6020000F0F2FFC6
:104BC00003214BF6030000F0EDFF02214FF43C40BF
:104BD00000F0E8FF00214BF6014000F0E3FF002168
:104BE0004BF6024000F0DEFFD0214FF4494000F0C8
:104BF000D9FF02214CF6011000F0D4FF50214CF6F1
:104C0000021000F0CFFF50214CF6031000F0CAFF55
:104C100050214CF6041000F0C5FF00214FF4545011
:104C200000F0C0FF55214FF4685000F0BBFF4FF477
:104C3000885000F0A1FF7820FDF7FAFA4FF42450D5
:104C400000F09AFF10BD10B5E22000F095FF1D2086
:104C500000F086FF022000F083FF042000F080FFB8
:104C60006420FDF7E5FAE02000F086FF012000F067
:104C700077FF0A20FDF7D2FAE02000F07DFF032045
:104C800000F06EFF0C20FDF7C9FA012000F074FF60
:104C90000A20FDF7C3FAE62000F06EFF2F2000F097
:104CA0005FFFFF2000F05CFFFF2000F059FFB02005
:104CB00000F062FF202000F053FF002000F050FFC2
:104CC000032000F04DFF40F21F3000F049FF0120AB
:104CD00000F046FF40F2DF1000F042FF002000F03D
:104CE0003FFFB42000F048FF042000F039FF40F2FD
:104CF0001F4000F035FF002000F032FF2E2000F0B2
:104D00002FFF002000F02CFF002000F029FF0020E2
:104D100000F026FF002000F023FFB62000F02CFF5B
:104D2000022000F01DFF4FF4037000F019FF002077
:104D300000F016FF172000F013FF152000F010FF01
:104D4000002000F00DFF002000F00AFFF02000F02E
:104D500013FF032000F004FF292000F00DFFD020F6
:104D600000F00AFF002000F0FBFEBE2000F004FF70
:104D7000052000F0F5FEFE2000F0F2FE012000F01C
:104D8000EFFE002000F0ECFE002000F0E9FE002025
:104D900000F0E6FEB82000F0EFFE032000F0E0FE99
:104DA000012000F0DDFEBA2000F0E6FE012000F058
:104DB000D7FE10BD10B5112000F0DEFE7820FDF703
:104DC0002DFA362000F0D8FE002000F0C9FE3A206F
:104DD00000F0D2FE052000F0C3FEB22000F0CCFEB1
:104DE0000C2000F0BDFE0C2000F0BAFE002000F008
:104DF000B7FE332000F0B4FE332000F0B1FEB72040
:104E000000F0BAFE352000F0ABFEBB2000F0B4FE8F
:104E1000322000F0A5FEC02000F0AEFE0C2000F015
:104E20009FFEC22000F0A8FE012000F099FEC320E2
:104E300000F0A2FE102000F093FEC42000F09CFEC3
:104E4000202000F08DFEC62000F096FE0F2000F01E
:104E500087FED02000F090FEA42000F081FEA1206B
:104E600000F07EFEE02000F087FED02000F078FE0B
:104E7000002000F075FE022000F072FE072000F016
:104E80006FFE0A2000F06CFE282000F069FE322040
:104E900000F066FE442000F063FE422000F060FE59
:104EA000062000F05DFE0E2000F05AFE122000F0F9
:104EB00057FE142000F054FE172000F051FEE120B0
:104EC00000F05AFED02000F04BFE002000F048FE1B
:104ED000022000F045FE072000F042FE0A2000F00C
:104EE0003FFE282000F03CFE312000F039FE542027
:104EF00000F036FE472000F033FE0E2000F030FEBA
:104F00001C2000F02DFE172000F02AFE1B2000F0D0
:104F100027FE1E2000F024FE2A2000F02DFE002097
:104F200000F01EFE002000F01BFE002000F018FE26
:104F3000EF2000F015FE2B2000F01EFE002000F0F8
:104F40000FFE002000F00CFE012000F009FE3F20C3
:104F500000F006FE292000F00FFE10BD10B5112054
:104F600000F00AFE7820FDF759F9362000F004FE23
:104F7000482000F0F5FD3A2000F0FEFD552000F03D
:104F8000EFFDF02000F0F8FDC32000F0E9FDF02077
:104F900000F0F2FD962000F0E3FDB42000F0ECFDFF
:104FA000012000F0DDFDB62000F0E6FD0A2000F053
:104FB000D7FDA22000F0D4FDB72000F0DDFDC62013
:104FC00000F0CEFDB92000F0D7FD022000F0C8FDB2
:104FD000E02000F0C5FDC02000F0CEFD802000F0F4
:104FE000BFFD162000F0BCFDC12000F0C5FD19205A
:104FF00000F0B6FDC22000F0BFFDA72000F0B0FD1C
:10500000C52000F0B9FD162000F0AAFDE82000F050
:10501000B3FD402000F0A4FD8A2000F0A1FD002097
:1050200000F09EFD002000F09BFD292000F098FD7F
:10503000192000F095FDA52000F092FD332000F02E
:105040008FFDE02000F098FDF02000F089FD0720A2
:1050500000F086FD0D2000F083FD042000F080FDAF
:10506000052000F07DFD142000F07AFD362000F0D0
:1050700077FD542000F074FD4C2000F071FD3820C5
:1050800000F06EFD132000F06BFD142000F068FDB1
:105090002E2000F065FD342000F062FDE12000F0DC
:1050A0006BFDF02000F05CFD102000F059FD142095
:1050B00000F056FD0E2000F053FD0C2000F050FDD6
:1050C000082000F04DFD352000F04AFD442000F09E
:1050D00047FD4C2000F044FD262000F041FD10204B
:1050E00000F03EFD122000F03BFD2C2000F038FDCA
:1050F000322000F035FDF02000F03EFD3C2000F0B5
:105100002FFDF02000F038FD692000F029FD782007
:10511000FDF784F8212000F02FFD292000F02CFD60
:1051200010BD00002DE9F04F05460E461746984683
:10513000DDF824A04FF0000B781B401C1FFA80FB09
:10514000344613E02146284600F07AFB00F020FDAB
:105150004FF0000906E00749A1F800A009F101009D
:105160001FFA80F9D945F6DB601C84B24445E9DDBD
:10517000BDE8F08F0008006C00B593B000BF00BF21
:10518000F948806940F48070F74988610846806971
:1051900000F48070009000BF00BF00BF00BF00BFE0
:1051A0000846806940F0200088610846806900F068
:1051B0002000009000BF00BF00BF00BF00BF084636
:1051C000806940F0200088610846806900F0200076
:1051D000009000BF00BF00BF00BF00BF084680694D
:1051E00040F4807088610846806900F48070009007
:1051F00000BF00BF00BF00BF00BF0846806940F08D
:10520000080088610846806900F00800009000BF2F
:1052100000BF00BF88140F90022010900120119051
:10522000032012900FA9D148FBF78AFA20200F9093
:105230000FA9CF48FBF784FA10200F900FA9CC4894
:10524000FBF77EFA01200F900FA9C848FBF778FA08
:1052500001200F9010900FA9C648FBF771FA4FF08C
:105260002040C5490860C548486006208860002184
:10527000C148C1601021416100218161C161416269
:105280004FF4805181620021C1624FF4804101637B
:105290000021416381630020089009900F200A904B
:1052A00000200E90019002900120039000200790B2
:1052B00001AA08A9B048FCF713F83220FCF7AEFFAA
:1052C000D32000F059FC00F091F9AD49888000F03E
:1052D0008DF9AB49888000F089F9A9498880084692
:1052E00080884FF6FF7101EA0020A549888000F010
:1052F0007DF9A34989880843A149888008468088A8
:1053000049F2413188427CD0042000F035FC00F0A5
:105310006DF99B49888000F069F99949888000F00F
:1053200065F997498880084680884FF6FF7101EA41
:1053300000209349888000F059F9914989880843F1
:105340008F4988800846808848F25251884203D1AC
:1053500047F289708A4988808948808847F2897134
:105360008842D0D0D42000F007FC00F03FF98449F7
:10537000888000F03BF98249888000F037F9804945
:105380008880084680884FF6FF7101EA00207C493A
:10539000888000F02BF97A49898808437849888009
:1053A0000846808845F210318842ACD0D32000F006
:1053B000E3FB00F01BF97249888000F017F970498F
:1053C000888000F013F96E498880084680884FF67F
:1053D000FF7101EA00206A49888000F007F96849F6
:1053E00089880843664988800846808847F2967114
:1053F000884288D055214FF4704000F0D3FBAA2199
:1054000000E07EE04FF2010000F0CCFB52214FF2B1
:10541000020000F0C7FB08214FF2030000F0C2FBBE
:1054200001214FF2040000F0BDFB4FF4454000F0B5
:10543000A3FB00F0DBF852498880084680884FF6CD
:10544000FF7101EA00204E4988804CF2015000F0C3
:1054500093FB00F0CBF84A49898808434849888083
:105460000520FCF7DBFE4648808845F21051884253
:1054700047D0D32000F080FB00F0B8F84049888086
:1054800000F0B4F83E49888000F0B0F83C498880CC
:10549000084680884FF6FF7101EA0020384988806D
:1054A00000F0A4F8364989880843354988800846C1
:1054B000808849F60601884223D0A12000F05CFBD9
:1054C00000F094F82E49888000F090F82C498880EC
:1054D000084680884FF6FF7101EA0020284988803D
:1054E00000F084F8264989880843254988800846C1
:1054F000808845F26171884203D141F663102049EA
:1055000088801F4881881FA0FCF786FB1C48808884
:1055100047F28971884202D1FFF74CFC4CE01848F1
:10552000808849F24131884202D1FDF7DFF943E03A
:105530001348808845F21031884202D1FDF78CFC77
:105540003AE00F48808847F29671884202D1FFF70F
:1055500005FD31E00A48808845F21051884217D194
:10556000FEF7F3FB28E0000000100240002001409D
:1055700000140140000C01406C020020040100A056
:10558000B40200204C43442049443A25780D0A00D7
:105590001148808849F60601884202D1FDF7BCFA1D
:1055A0000AE00D48808841F66311884204D1FFF774
:1055B0004AFB642000F0AAFA0020FDF7D1F800BFF2
:1055C000012211460548FBF76DFA00BF4FF6FF7048
:1055D000FDF7ACF813B000BDB4020020000C014090
:1055E00000BF011EA0F10100FBD1704708B50220E9
:1055F000FFF7F6FF024800880090BDF8000008BDE4
:105600000008006CF0B50546002400278B4880791F
:10561000012805D18948808841F66311884208D164
:1056200086488079F0B98548808841F663118842C0
:1056300018D1082D15D2DFE805F00406080A0C0E73
:10564000101206250DE007250BE0042509E00525CD
:1056500007E0012505E0002503E0032501E0022520
:1056600000BF00BF082D1CD2DFE805F00406090CBE
:105670000F12151800BF14E044F0800411E044F04C
:1056800040040EE044F0C0040BE044F0200408E0C5
:1056900044F0600405E044F0A00402E044F0E004BB
:1056A00000BF00BF36276548808845F21051884208
:1056B00000D13F026148808849F2413188420BD0D5
:1056C0005E48808847F28971884205D05B488088AF
:1056D00047F29671884201D144F0080421463846C9
:1056E00000F060FA5548808841F6631188421DD069
:1056F00004F0200068B15148008850494988884228
:1057000014DA4E48068840884C490880084646808E
:105710000CE04A48008849494988884206DD4748E4
:105720000688408845490880084646804348808866
:1057300045F21051884252D14049488900F01CFA84
:10574000002000F00DFA3D494989491C88B200F05B
:1057500013FA002000F004FA38494989891C88B2FC
:1057600000F00AFA35490988491EC1F30F2000F0FC
:10577000F7F932494989C91C88B200F0FDF92F496F
:105780000978491EC8B200F0EBF92C49888900F06D
:10579000F3F9002000F0E4F928498989491C88B20E
:1057A00000F0EAF9002000F0DBF924498989891C1E
:1057B00088B200F0E1F921494988491EC1F30F2060
:1057C00000F0CEF91D498989C91C88B200F0D4F9CE
:1057D0001A498978491EC8B200F0C2F92DE017496C
:1057E000488900F0C9F9002000F0BAF9002000F063
:1057F000B7F912490988491EC1F30F2000F0B0F92A
:105800000E490978491EC8B200F0AAF90B498889E7
:1058100000F0B2F9002000F0A3F9002000F0A0F998
:1058200006494988491EC1F30F2000F099F9034940
:105830008978491EC8B200F093F9F0BDB402002087
:1058400010B502460C464548808841F663118842EF
:1058500047D142488079A8B940480088401E801A44
:1058600082B23E49488900F087F9002000F078F9BB
:10587000002000F075F9101200F072F9D0B200F0BB
:105880006FF916E03549488900F076F9101200F0FA
:1058900067F9D0B200F064F930490988491EC1F3B4
:1058A0000F2000F05DF92D490978491EC8B200F0BB
:1058B00057F92A49888900F05FF9201200F050F961
:1058C000E0B200F04DF925494988491EC1F30F2087
:1058D00000F046F921498978491EC8B200F040F924
:1058E0003AE01E48808845F21051884220D11B4979
:1058F000488900F041F9101200F032F9174949893E
:10590000491C88B200F038F9D0B200F029F91349E7
:10591000888900F031F9201200F022F90F498989B5
:10592000491C88B200F028F9E0B200F019F913E040
:105930000A49488900F020F9101200F011F9D0B29C
:1059400000F00EF90549888900F016F9201200F0E0
:1059500007F9E0B200F004F910BD0000B402002025
:105960002DE9FC4F80460E4615461C46B3460020E6
:10597000019000902046E31704EB5373DB1021469F
:105980004FEAE47C04EB5C7C4FEAEC0CA4EBCC0C1F
:10599000BCF1000F02D04FF0010C01E04FF0000C01
:1059A0006344224604EBD27C4FEA6C0C03FB0CF3FD
:1059B000DBB20193A5F12000C5B20C2C06D0102C4F
:1059C0000BD0182C0ED0202C18D112E005EB45007E
:1059D0002D4901EB8000009012E02C4800EB0510EF
:1059E00000900DE005EBC500294901EB8000009017
:1059F00006E0284800EB8510009001E0BDE8FC8F30
:105A000000BF00273AE0009810F807904FF0000A16
:105A10002EE009F0800028B1314640460C9AFCF790
:105A200055FF07E00B9828B91B48314602684046ED
:105A3000FCF74CFF4FEA49604FEA1069701C86B2D0
:105A400016484088B04200DCD8E7A6EB0B00A04225
:105A50000AD15E4608F101001FFA80F80F4800885D
:105A6000404500DCCAE706E00AF1010000F0FF0A49
:105A7000BAF1080FCDDB00BF781CC7B2019887428E
:105A8000C1DB00BFBAE70000A37100081776000869
:105A9000077C00086389000820000020B402002071
:105AA0002DE9FC4F04460D4690469946DDE90C7AF7
:105AB0000B9E04F0FF0B08EB04001FFA80F809EBC3
:105AC00005001FFA80F917E0444502DB5C46A8197F
:105AD00085B24D4500DB15E00020CDE9000A3A789B
