:020000040800F2
:100000004805002045010008751300086D1300081D
:1000100071130008B10100080D160008000000006F
:10002000000000000000000000000000A113000814
:10003000B50100080000000077130008A3130008B2
:10004000111600085F0100085F0100085F01000849
:100050005F0100085F0100085F0100085F01000800
:100060005F0100085F0100085F0100085F010008F0
:100070005F0100085F0100085F0100085F010008E0
:100080005F0100085F0100085F0100085F010008D0
:100090005F0100085F0100085F0100085F010008C0
:1000A0005F0100085F0100085F0100085F010008B0
:1000B0005F0100085F0100085F0100085F010008A0
:1000C0005F0100085F0100085F0100085F01000890
:1000D0005F010008FD1500085F0100085F010008CE
:1000E0005F0100085F0100085F0100085F01000870
:1000F0005F0100085F0100085F0100085F01000860
:100100005F0100085F0100085F0100085F0100084F
:100110005F0100085F0100085F0100085F0100083F
:100120005F0100085F0100085F0100085F0100082F
:10013000DFF80CD000F02AF80048004771170008DB
:10014000480500200648804706480047FEE7FEE7CE
:10015000FEE7FEE7FEE7FEE7FEE7FEE7FEE7FEE777
:10016000AB13000831010008D2B201E000F8012B06
:10017000491EFBD270470022F6E710B513460A4627
:1001800004461946FFF7F0FF204610BD064C074D08
:1001900006E0E06840F0010394E807009847103457
:1001A000AC42F6D3FFF7C8FFAC180008CC18000823
:1001B00000BFFEE77047000070B50446002594F8C4
:1001C0002100022803D00420A0630125C1E020689B
:1001D000006820F00E00216808602068006820F0A8
:1001E0000100216808605C492068884252D95A4958
:1001F00078392068884201D1012047E056496439A6
:100200002068884201D1102040E0534950392068CD
:10021000884201D1801539E04F493C392068884235
:1002200001D1801432E04C4928392068884202D13B
:100230004FF480302AE0484914392068884202D1BE
:100240004FF4801022E044492068884201D14004E4
:100250001CE042492068884201D1012016E03F4954
:1002600014312068884201D110200FE03B49283129
:100270002068884201D1801508E038493C31206867
:10028000884201D1801401E04FF480303349091FC6
:10029000086051E0304978392068884201D1012056
:1002A00047E02D4964392068884201D1102040E0A0
:1002B000294950392068884201D1801539E0264902
:1002C0003C392068884201D1801432E02249283923
:1002D0002068884202D14FF480302AE01E49143948
:1002E0002068884202D14FF4801022E01A49206829
:1002F000884201D140041CE018492068884201D19D
:10030000012016E0154914312068884201D11020DF
:100310000FE0124928312068884201D1801508E099
:100320000E493C312068884201D1801401E04FF42D
:100330008030094980394860012084F8210000BFDD
:10034000002084F8200000BF606B10B12046616B74
:100350008847284670BD0000800002400804024023
:100360002DE9F847024600239C467BE14FF0010847
:1003700008FA03F4D1F8008008EA0400A0427DD115
:10038000DFF8F4A2D1F80480A8EB0A09D0453AD0EE
:1003900014DCB8F1030F50D009DCB8F1000F31D0F4
:1003A000B8F1010F1CD0B8F1020F49D120E0B8F12B
:1003B000110F18D0B8F1120F42D11EE0B9F5881F05
:1003C00025D006DCB9F5803F20D0B9F5801F37D1A4
:1003D0001AE0B9F5001F18D0B9F5041F30D117E0A5
:1003E000D1F80CC02DE0D1F80C8008F1040C28E005
:1003F000D1F80C8008F1080C23E0D1F80C8008F14A
:100400000C0C1EE000BF00BF00BF00BF00BF00BF5C
:10041000D1F80880B8F1000F02D14FF0040C0BE0C6
:10042000D1F80880B8F1010F03D14FF0080C146126
:1004300002E04FF0080C546103E04FF0000C00E0C4
:1004400000BF00BFFF2801D8904601E002F1040878
:100450004646FF2802D84FEA830803E0A3F10808C4
:100460004FEA88084746D6F800804FF00F0909FA8E
:1004700007F928EA09080CFA07F900E07AE048EAE7
:100480000908C6F80080D1F8048008F08058B8F157
:10049000805F6FD100BFDFF8E481D8F8188048F0A2
:1004A0000108DFF8D891C9F81880C846D8F8188034
:1004B00008F00108CDF8008000BF00BF4FEAB9384E
:1004C0004FEA930958F829504FEA83784FEA187990
:1004D0004FF00F0808FA09F825EA0805DFF8A081AF
:1004E000424502D14FF0000824E0DFF898814245F0
:1004F00002D14FF001081DE0DFF88C81424502D1A6
:100500004FF0020816E0DFF88481424502D14FF037
:1005100003080FE0DFF87881424502D14FF004086C
:1005200008E0DFF87081424502D14FF0050801E094
:100530004FF006084FEA83794FEA197908FA09F86B
:1005400048EA0505DFF850814FEA930948F8295039
:10055000D1F8048008F48038B8F5803F0BD1DFF87B
:100560003C81D8F8008048EA0008DFF83091C9F8EB
:1005700000800AE075E0DFF82481D8F8008028EADE
:100580000008DFF81891C9F80080D1F8048008F459
:100590000038B8F5003F0ED1DFF8008108F10408FB
:1005A000D8F8008048EA0008DFF8F09009F1040963
:1005B000C9F800800DE0DFF8E48008F10408D8F8FD
:1005C000008028EA0008DFF8D49009F10409C9F88E
:1005D0000080D1F8048008F48018B8F5801F0ED18F
:1005E000DFF8B88008F10808D8F8008048EA000869
:1005F000DFF8A89009F10809C9F800800DE0DFF8DC
:100600009C8008F10808D8F8008028EA0008DFF884
:100610008C9009F10809C9F80080D1F8048008F429
:100620000018B8F5001F0ED1DFF8708008F10C0833
:10063000D8F8008048EA0008DFF8609009F10C095A
:10064000C9F800800DE0DFF8548008F10C08D8F8F4
:10065000008028EA0008DFF8449009F10C09C9F885
:1006600000805B1CD1F8008028FA03F8B8F1000F75
:100670007FF47CAEBDE8F887000011100010024046
:1006800000080140000C014000100140001401402E
:1006900000180140001C0140080001400004014016
:1006A00010B5C26821EA020302EA010443EA0443E6
:1006B000036110BD0AB1016101E00B0403617047E1
:1006C00001480068704700001000002003480068DF
:1006D0000349097808440149086070471000002068
:1006E0001800002010B50848006840F010000649C6
:1006F0000860052000F080F80F2000F007F800F0F7
:100700002BF8002010BD00000020024070B5044608
:100710000E4800784FF47A71B1FBF0F00C4909688B
:10072000B1FBF0F5284600F0E3FB08B1012070BDF5
:10073000102C07D200222146501E00F01EF805485A
:10074000046001E00120F2E70020F0E7180000203B
:1007500000000020140000207047014608460028D1
:1007600009DB00F01F0301229A4043099B0003F1BB
:10077000E023C3F8002100BF70472DE9F05F8046F9
:100780000D461646002700F04BFF074639462A461D
:10079000334601F00700C0F1070ABAF1040F02D98D
:1007A0004FF0040A01E0C0F1070AD14600F1040A43
:1007B000BAF1070F02D24FF0000A01E0A0F1030ADC
:1007C000D4464FF0010A0AFA09FAAAF1010A0AEA24
:1007D000020A0AFA0CFA4FF0010B0BFA0CFBABF110
:1007E000010B0BEA030B4AEA0B042146404600F0DA
:1007F0001FFFBDE8F09F000000BF00F00702064B9E
:1008000019684FF6FF031940044B0B4343EA0221DA
:10081000014B196000BF70470CED00E00000FA05C5
:1008200070B504460D460CB9012070BD5A480068E9
:1008300000F00700A8420ED25748006820F00700D9
:100840002843554908600846006800F00700A842A0
:1008500001D00120E9E7207800F0020002281DD134
:10086000207800F00400042805D14C48406840F48A
:10087000E0604A494860207800F00800082805D167
:100880004648406840F460504449486043484068E6
:1008900020F0F000A168084340494860207800F04B
:1008A000010078B36068012806D13C48006800F474
:1008B000003090B90120B8E76068022806D13748B7
:1008C000006800F0007040B90120AEE733480068CE
:1008D00000F0020008B90120A7E73048406820F086
:1008E0000300616808432D494860FFF7E9FE0646AA
:1008F00009E0FFF7E5FE801B41F28831884202D90A
:10090000032092E707E02548406800F00C0061688A
:10091000B0EB810FEDD12048006800F00700A8423D
:100920000ED91D48006820F0070028431A490860C6
:100930000846006800F00700A84201D0012074E7D3
:10094000207800F00400042807D11448406820F4FF
:10095000E060E168084311494860207800F0080031
:10096000082808D10D48406820F46050216940EA09
:10097000C1000A49486000F03FF808494968C1F3DE
:100980000311074A515CC8400649086006480068E0
:10099000FFF7BCFE002048E70020024000100240A4
:1009A000941800080000002014000020014800688E
:1009B000704700000000002000B5FFF7F7FF044972
:1009C0004968C1F30221034A515CC84000BD0000E0
:1009D00000100240A418000800B5FFF7E7FF044923
:1009E0004968C1F3C221034A515CC84000BD000000
:1009F00000100240A4180008F0B585B00FF26C0C8E
:100A00009CE8E01001A8A0E8E0101CA52D68009566
:100A100000210022002300240020194D696801F004
:100A20000C05F5B1042D02D0082D19D101E01548AF
:100A300019E001ADC1F38346AC5D01F4803555B1D9
:100A40000F4D6D68C5F340451DF805200D4D6543FC
:100A5000B5FBF2F302E00C4D04FB05F3184602E08F
:100A600000BF084800BF00BF05B0F0BD0203040589
:100A7000060708090A0B0C0D0E0F101001020000EA
:100A80000010024000127A0000093D00F8B504464B
:100A90000CB90120F8BD207800F00100002878D0C2
:100AA000F848406800F00C0004280CD0F548406875
:100AB00000F00C00082811D1F248406800F48030A2
:100AC000B0F5803F0AD1EF48006800F400300028FC
:100AD0005FD0606800285CD10120DBE700BF606860
:100AE000B0F5803F06D1E748006840F48030E54922
:100AF000086028E0606858B9E248006820F4803057
:100B0000E04908600846006820F4802008601AE088
:100B10006068B0F5A02F0BD1DA48006840F480205F
:100B2000D84908600846006840F4803008600AE050
:100B3000D448006820F48030D24908600846006834
:100B400020F48020086000BF606888B1FFF7B8FD1E
:100B5000054606E0FFF7B4FD401B642801D90320D9
:100B600098E7C848006800F400300028F2D010E090
:100B7000FFF7A6FD054606E0FFF7A2FD401B64282F
:100B800001D9032086E7BF48006800F40030002840
:100B9000F2D1207800F00200022857D1B94840680D
:100BA00000F00C0050B1B748406800F00C00082875
:100BB00018D1B448406800F4803098B9B148006852
:100BC00000F0020020B12069012801D0012061E776
:100BD000AC48006820F0F800616940EAC100A9490A
:100BE000086033E02069E8B10120A7490860FFF7F9
:100BF00067FD054606E0FFF763FD401B022801D9AB
:100C0000032047E79F48006800F002000028F2D068
:100C10009C48006820F0F800616940EAC1009949E9
:100C2000086013E0002098490860FFF749FD054679
:100C300006E0FFF745FD401B022801D9032029E704
:100C40009048006800F002000028F2D1207800F0FF
:100C5000080008282DD1A069B8B101208B4908608F
:100C6000FFF72EFD054606E0FFF72AFD401B022890
:100C700001D903200EE78348406A00F002000028F3
:100C8000F2D0012000F078FB13E000207F490860DB
:100C9000FFF716FD054606E0FFF712FD401B022890
:100CA00001D90320F6E67748406A00F002000028E8
:100CB000F2D1207800F00400042873D10027714895
:100CC000C06900F0805070B900BF6E48C06940F044
:100CD00080506C49C8610846C06900F0805000909F
:100CE00000BF00BF01276A48006800F48070B0B9F7
:100CF0006748006840F4807065490860FFF7E0FCD1
:100D0000054606E0FFF7DCFC401B642801D9032000
:100D1000C0E65F48006800F480700028F2D000BF91
:100D2000E068012806D15748006A40F001005549A3
:100D3000086227E0E06858B95248006A20F00100D4
:100D4000504908620846006A20F00400086219E071
:100D5000E06805280BD14B48006A40F0040049497F
:100D600008620846006A40F0010008620AE045484F
:100D7000006A20F00100434908620846006A20F03A
:100D80000400086200BFE068A0B1FFF799FC0546C7
:100D900009E0FFF795FC401B41F28831884202D9F7
:100DA000032077E622E03748006A00F002000028BE
:100DB000EFD012E0FFF784FC054608E0FFF780FC67
:100DC000401B41F28831884201D9032062E62D4858
:100DD000006A00F002000028F0D1012F05D1294857
:100DE000C06920F080502749C86100BFE069C8B3DE
:100DF0002448406800F00C00082860D0E069022810
:100E000048D1002020490866FFF75AFC054606E055
:100E1000FFF756FC401B022801D903203AE6194887
:100E2000006800F000700028F2D1206AB0F5803F21
:100E300007D11448406820F40030A16808431149E4
:100E40004860D4E9080108430E49496821F4741147
:100E500008430C49486001200B490866FFF730FC45
:100E6000054607E03DE0FFF72BFC401B022801D9B7
:100E700003200FE60348006800F000700028F2D05D
:100E80002FE0000000100240000042428004424275
:100E900000700040002014490866FFF711FC054669
:100EA00006E0FFF70DFC401B022801D90320F1E505
:100EB0000E48006800F000700028F2D111E0E069EF
:100EC000012800D1E6E50948466806F48031206A29
:100ED000814204D106F47011606A814201D0012080
:100EE000D8E50020D6E50000000042420010024094
:100EF00070B504462546681EB0F1807F01D30120FD
:100F00000FE0681E4FF0E02148610F214FF0FF30E5
:100F100000F08EFB00204FF0E0218861072008617F
:100F2000002070BD704700002DE9F047044620689E
:100F300005682068C668206847694FF00008C14608
:100F400005F00F08B8F1000F0AD105F0200038B104
:100F500006F0200020B1204600F052FABDE8F087EC
:100F6000B8F1000F71D007F0010018B906F49070C5
:100F700000286AD005F0010030B106F4807018B185
:100F8000E06B40F00100E06305F0040030B107F0D1
:100F9000010018B1E06B40F00200E06305F00200D0
:100FA00030B107F0010018B1E06B40F00400E063DD
:100FB00005F0080048B106F0200010B907F0010064
:100FC00018B1E06B40F00800E063E06B68B305F037
:100FD000200028B106F0200010B1204600F010FAE1
:100FE00020684069C0F38019E06B00F0080010B978
:100FF000B9F1000F22D0204600F0E2F920684069E4
:1010000000F04000B0B12068406920F04000216845
:101010004861606B50B11848616B4863606BFFF7C3
:10102000CBF810B1606B416B88470CE02046FFF7AE
:1010300079FF08E02046FFF775FF04E02046FFF740
:1010400071FF0020E06389E7FFE705F0800030B121
:1010500006F0800018B1204600F0A0FA7EE705F007
:10106000400030B106F0400018B1204600F0B8F959
:1010700074E700BF72E70000AD13000810B5044626
:101080000CB9012010BDA06900B100E000BF94F8C8
:10109000390028B9002084F83800204600F028F8EC
:1010A000242084F839002068C06820F400502168AA
:1010B000C860204600F0F4F92068006920F49040F0
:1010C000216808612068406920F02A002168486191
:1010D0002068C06840F400502168C8600020E063C8
:1010E000202084F8390084F83A000020CAE7000084
:1010F00010B586B004462849206888424AD100BF0E
:1011000000BF2648806940F00400244988610846F1
:10111000806900F00400019000BF00BF00BF00BF65
:1011200000BF0846806940F0040088610846806975
:1011300000F00400019000BF00BF00BF00BF00BF6F
:101140000846806940F4804088610846806900F460
:101150008040019000BF00BF00BF481502900220F0
:101160000390012004900320059002A90C48FFF78A
:10117000F7F84FF4806002900020039002A908481D
:10118000FFF7EEF82520FFF7E8FA032211462520A5
:10119000FFF7F3FA06B010BD00380140001002401E
:1011A0000008014010B5034693F83A0020282FD1DB
:1011B00001B10AB9012010BD00BF93F83800012821
:1011C00001D10220F7E7012083F8380000BF9962BF
:1011D0009A85DA850020D863222083F83A0000BF80
:1011E000002083F8380000BF1868C06840F48070A1
:1011F0001C68E0601868406940F001001C6860618C
:101200001868C06840F020001C68E0600020D2E749
:101210000220D0E710B504462049206888423BD11F
:101220001F48008800F4004088BB1D48008800F477
:10123000804070B11B4800780A2803D0002018496C
:10124000088024E01648008840F4004014490880D3
:101250001DE0144800780D2806D11148008840F49C
:1012600080400F49088012E00E4800780C49098838
:10127000C1F30D010C4A505409480088401C08492C
:10128000088008460088C72801DD00200880012268
:1012900004490648FFF786FF10BD000000380140F2
:1012A0000C0000200E0000201C000020E4000020A4
:1012B0007047000010B50446044800F051F800BF24
:1012C00020210348FFF7ECF900BF10BD30010020DA
:1012D0000018014010B5044620684068C0F3402063
:1012E00058B12068806800F0010030B16FF0010053
:1012F000216888602046FFF7DDFF10BD10B5044669
:101300000CB9012010BD204600F00EF8E06840F056
:10131000800021680860616820690843A16808436B
:10132000216848600020EDE738B5044600BF0B484F
:10133000C06940F400600949C8610846C06900F40A
:101340000060009000BF00BF032202210020FFF7D1
:1013500014FA0020FFF701FA38BD00000010024027
:1013600001460A68C86810600020704700BFFEE7A9
:1013700000BFFEE77047704708B508490968C9080B
:101380004FF47A72B1FBF2F14143009100BF00BF0C
:1013900000994A1E00920029F9D108BD00000020E2
:1013A000704710B5FFF792F910BD704770B505464C
:1013B0006C6A0020E085E0842046FFF7B3FD70BD35
:1013C0000168C96821F490710268D16001684969B7
:1013D00021F0010102685161202180F83A10704724
:1013E00010B504462068C06820F040002168C8603D
:1013F000202084F839002046FFF75AFF002010BD56
:1014000070B5044694F83A00222847D1A068B0F598
:10141000805F0CD1206950B90025A66A2068406819
:10142000C0F308003080A06A801CA06215E0A56AA5
:101430000026A068B0F5805F03D0A06828B92069B5
:1014400018B920684068287004E02068406800F0FF
:101450007F002870A06A401CA062E08D401E80B210
:10146000E085C8B92068C06820F020002168C86005
:101470002068C06820F480702168C86020684069D6
:1014800020F0010021684861202084F83A002046BD
:10149000FFF7C0FE002070BD0020FCE70220FAE745
:1014A00070B504462168096921F44051E26811438E
:1014B000226811612269A1681143626941EA02054B
:1014C0002168C96841F20C62914329432268D160C6
:1014D0002168496921F44071A26911432268516170
:1014E0002D4A2168914202D1FFF776FA01E0FFF719
:1014F00063FA00EBC00101EB001162689200B1FBDE
:10150000F2F100EBC00202EB001263689B00B2FB39
:10151000F3F26423B2FBF3F202EBC20303EB021219
:10152000A1EB8201322202EB01116422B1FBF2F144
:1015300001F0F00100EBC00202EB001263689B00B7
:10154000B2FBF3F26423B2FBF3F201EB021200EB05
:10155000C00101EB001163689B00B1FBF3F100EBEC
:10156000C00303EB00136668B600B3FBF6F3642612
:10157000B3FBF6F303EBC30606EB0313A1EB830106
:10158000322303EB01116423B1FBF3F101F00F01EE
:1015900011442268916070BD00380140014691F805
:1015A0003900212828D18868B0F5805F0BD10869FF
:1015B00048B90A6A1088C0F308000B685860086AC6
:1015C000801C086205E00B6A581C086218780B68DA
:1015D0005860C88C401E80B2C88458B90868C0687A
:1015E00020F080000B68D8600868C06840F04000B8
:1015F0000B68D860002070470220FCE710B5024855
:10160000FFF792FC10BD0000E400002000BFFEE7E1
:1016100010B50248FFF75EFE10BD0000300100204B
:1016200002480068C0F30220704700000CED00E0A3
:1016300010B5002804DB0A07130E054A135406E010
:101640000A07140E034A00F00F031B1FD45410BDE9
:1016500000E400E018ED00E002E008C8121F08C135
:10166000002AFAD170477047002001E001C1121F23
:10167000002AFBD170470000014908607047000054
:101680000400002010B504464FF47A7104FB01F009
:1016900000F002F810BD000070B5034600224FF0C4
:1016A000E02675690D4E366803FB06F44FF0E02620
:1016B000B16910E04FF0E026B06988420BD0884253
:1016C00002D20E1A324402E02E1A0E44324401466F
:1016D000A24200D300E0EDE700BF70BD040000208F
:1016E00000B585B000BF00BF1E48806940F008000B
:1016F0001C4988610846806900F00800009000BF1E
:1017000000BF00BF00BF00BF0846806940F0400036
:1017100088610846806900F04000009000BF00BF6B
:1017200000BF20200190012002900390032004902C
:1017300001A90D48FEF714FE2020019001A90B48D5
:10174000FEF70EFE00BF012220210748FEF7B2FF80
:1017500000BF00BF012220210448FEF7ABFF00BFFD
:1017600005B000BD00100240000C0140001801400F
:10177000FEF7B8FF4FF4E01000F026F84820FFF71E
:101780007BFF4FF4E13000F053F8FFF7A9FF00BFF3
:10179000002220210B48FEF78DFF00BF4FF496700A
:1017A000FFF770FF4FF4C0725F217F2000F05CF8FC
:1017B00006E000BF012220210248FEF77BFF00BFA8
:1017C000F7E70000000C014030B58FB0054601245A
:1017D000282105A8FEF7CFFC14216846FEF7CBFCB4
:1017E00001200590000406900020079002200C9034
:1017F000C1030D910E9505A8FFF748F904460CB1F9
:1018000000BFFEE70F200090022001900020029010
:101810004FF4806003900020049002216846FEF798
:10182000FFFF04460CB100BFFEE70FB030BD000063
:1018300010B5044609480A4908600846446000217A
:101840008160C160016181610C214161FFF716FC7B
:10185000012204490248FFF7A5FC10BD00380140F1
:10186000E40000200E00002070B504460E46154628
:10187000064807490860084645608660C4604FF422
:1018800000710161FFF73AFD70BD0000002C0040BF
:1018900030010020000000000000000001020304ED
:1018A000060708090000000001020304CC18000824
:1018B000000000201C00000058160008E81800086E
:1018C0001C0000202C050000681600080024F4000D
:1018D0000000000000000000000000000000000008
:0818E0001000000001000000EF
:0400000508000131BD
:00000001FF
